{
	"EdutraceLedger.sol": {
		"EdutraceLedger": {
			"abi": [
				{
					"inputs": [],
					"stateMutability": "nonpayable",
					"type": "constructor"
				},
				{
					"anonymous": false,
					"inputs": [
						{
							"indexed": true,
							"internalType": "bytes32",
							"name": "fileHash",
							"type": "bytes32"
						},
						{
							"indexed": false,
							"internalType": "string",
							"name": "ipfsCid",
							"type": "string"
						}
					],
					"name": "DocumentMinted",
					"type": "event"
				},
				{
					"inputs": [
						{
							"internalType": "address",
							"name": "recipient",
							"type": "address"
						},
						{
							"internalType": "string",
							"name": "cid",
							"type": "string"
						}
					],
					"name": "issueCredential",
					"outputs": [
						{
							"internalType": "bytes32",
							"name": "",
							"type": "bytes32"
						}
					],
					"stateMutability": "nonpayable",
					"type": "function"
				},
				{
					"inputs": [],
					"name": "owner",
					"outputs": [
						{
							"internalType": "address",
							"name": "",
							"type": "address"
						}
					],
					"stateMutability": "view",
					"type": "function"
				},
				{
					"inputs": [
						{
							"internalType": "bytes32",
							"name": "",
							"type": "bytes32"
						}
					],
					"name": "registry",
					"outputs": [
						{
							"internalType": "address",
							"name": "issuer",
							"type": "address"
						},
						{
							"internalType": "string",
							"name": "ipfsCid",
							"type": "string"
						},
						{
							"internalType": "uint256",
							"name": "timestamp",
							"type": "uint256"
						}
					],
					"stateMutability": "view",
					"type": "function"
				},
				{
					"inputs": [
						{
							"internalType": "bytes32",
							"name": "_fileHash",
							"type": "bytes32"
						}
					],
					"name": "verifyDocument",
					"outputs": [
						{
							"internalType": "bool",
							"name": "",
							"type": "bool"
						}
					],
					"stateMutability": "view",
					"type": "function"
				}
			],
			"devdoc": {
				"kind": "dev",
				"methods": {},
				"version": 1
			},
			"evm": {
				"assembly": "    /* \"EdutraceLedger.sol\":61:1573  contract EdutraceLedger {... */\n  mstore(0x40, 0x80)\n    /* \"EdutraceLedger.sol\":596:647  constructor() {... */\n  callvalue\n  dup1\n  iszero\n  tag_1\n  jumpi\n  revert(0x00, 0x00)\ntag_1:\n  pop\n    /* \"EdutraceLedger.sol\":629:639  msg.sender */\n  caller\n    /* \"EdutraceLedger.sol\":621:626  owner */\n  0x00\n  0x00\n    /* \"EdutraceLedger.sol\":621:639  owner = msg.sender */\n  0x0100\n  exp\n  dup2\n  sload\n  dup2\n  0xffffffffffffffffffffffffffffffffffffffff\n  mul\n  not\n  and\n  swap1\n  dup4\n  0xffffffffffffffffffffffffffffffffffffffff\n  and\n  mul\n  or\n  swap1\n  sstore\n  pop\n    /* \"EdutraceLedger.sol\":61:1573  contract EdutraceLedger {... */\n  dataSize(sub_0)\n  dup1\n  dataOffset(sub_0)\n  0x00\n  codecopy\n  0x00\n  return\nstop\n\nsub_0: assembly {\n        /* \"EdutraceLedger.sol\":61:1573  contract EdutraceLedger {... */\n      mstore(0x40, 0x80)\n      callvalue\n      dup1\n      iszero\n      tag_1\n      jumpi\n      revert(0x00, 0x00)\n    tag_1:\n      pop\n      jumpi(tag_2, lt(calldatasize, 0x04))\n      shr(0xe0, calldataload(0x00))\n      dup1\n      0x7ef50298\n      eq\n      tag_3\n      jumpi\n      dup1\n      0x8da5cb5b\n      eq\n      tag_4\n      jumpi\n      dup1\n      0x90c7c49c\n      eq\n      tag_5\n      jumpi\n      dup1\n      0xfe35089f\n      eq\n      tag_6\n      jumpi\n    tag_2:\n      revert(0x00, 0x00)\n        /* \"EdutraceLedger.sol\":360:410  mapping(bytes32 => DocumentRecord) public registry */\n    tag_3:\n      tag_7\n      0x04\n      dup1\n      calldatasize\n      sub\n      dup2\n      add\n      swap1\n      tag_8\n      swap2\n      swap1\n      tag_9\n      jump\t// in\n    tag_8:\n      tag_10\n      jump\t// in\n    tag_7:\n      mload(0x40)\n      tag_11\n      swap4\n      swap3\n      swap2\n      swap1\n      tag_12\n      jump\t// in\n    tag_11:\n      mload(0x40)\n      dup1\n      swap2\n      sub\n      swap1\n      return\n        /* \"EdutraceLedger.sol\":92:112  address public owner */\n    tag_4:\n      tag_13\n      tag_14\n      jump\t// in\n    tag_13:\n      mload(0x40)\n      tag_15\n      swap2\n      swap1\n      tag_16\n      jump\t// in\n    tag_15:\n      mload(0x40)\n      dup1\n      swap2\n      sub\n      swap1\n      return\n        /* \"EdutraceLedger.sol\":830:1360  function issueCredential(address recipient, string memory cid) public onlyOwner returns (bytes32) {... */\n    tag_5:\n      tag_17\n      0x04\n      dup1\n      calldatasize\n      sub\n      dup2\n      add\n      swap1\n      tag_18\n      swap2\n      swap1\n      tag_19\n      jump\t// in\n    tag_18:\n      tag_20\n      jump\t// in\n    tag_17:\n      mload(0x40)\n      tag_21\n      swap2\n      swap1\n      tag_22\n      jump\t// in\n    tag_21:\n      mload(0x40)\n      dup1\n      swap2\n      sub\n      swap1\n      return\n        /* \"EdutraceLedger.sol\":1446:1570  function verifyDocument(bytes32 _fileHash) public view returns (bool) {... */\n    tag_6:\n      tag_23\n      0x04\n      dup1\n      calldatasize\n      sub\n      dup2\n      add\n      swap1\n      tag_24\n      swap2\n      swap1\n      tag_9\n      jump\t// in\n    tag_24:\n      tag_25\n      jump\t// in\n    tag_23:\n      mload(0x40)\n      tag_26\n      swap2\n      swap1\n      tag_27\n      jump\t// in\n    tag_26:\n      mload(0x40)\n      dup1\n      swap2\n      sub\n      swap1\n      return\n        /* \"EdutraceLedger.sol\":360:410  mapping(bytes32 => DocumentRecord) public registry */\n    tag_10:\n      mstore(0x20, 0x02)\n      dup1\n      0x00\n      mstore\n      keccak256(0x00, 0x40)\n      0x00\n      swap2\n      pop\n      swap1\n      pop\n      dup1\n      0x00\n      add\n      0x00\n      swap1\n      sload\n      swap1\n      0x0100\n      exp\n      swap1\n      div\n      0xffffffffffffffffffffffffffffffffffffffff\n      and\n      swap1\n      dup1\n      0x01\n      add\n      dup1\n      sload\n      tag_28\n      swap1\n      tag_29\n      jump\t// in\n    tag_28:\n      dup1\n      0x1f\n      add\n      0x20\n      dup1\n      swap2\n      div\n      mul\n      0x20\n      add\n      mload(0x40)\n      swap1\n      dup2\n      add\n      0x40\n      mstore\n      dup1\n      swap3\n      swap2\n      swap1\n      dup2\n      dup2\n      mstore\n      0x20\n      add\n      dup3\n      dup1\n      sload\n      tag_30\n      swap1\n      tag_29\n      jump\t// in\n    tag_30:\n      dup1\n      iszero\n      tag_31\n      jumpi\n      dup1\n      0x1f\n      lt\n      tag_32\n      jumpi\n      0x0100\n      dup1\n      dup4\n      sload\n      div\n      mul\n      dup4\n      mstore\n      swap2\n      0x20\n      add\n      swap2\n      jump(tag_31)\n    tag_32:\n      dup3\n      add\n      swap2\n      swap1\n      0x00\n      mstore\n      keccak256(0x00, 0x20)\n      swap1\n    tag_33:\n      dup2\n      sload\n      dup2\n      mstore\n      swap1\n      0x01\n      add\n      swap1\n      0x20\n      add\n      dup1\n      dup4\n      gt\n      tag_33\n      jumpi\n      dup3\n      swap1\n      sub\n      0x1f\n      and\n      dup3\n      add\n      swap2\n    tag_31:\n      pop\n      pop\n      pop\n      pop\n      pop\n      swap1\n      dup1\n      0x02\n      add\n      sload\n      swap1\n      pop\n      dup4\n      jump\t// out\n        /* \"EdutraceLedger.sol\":92:112  address public owner */\n    tag_14:\n      0x00\n      0x00\n      swap1\n      sload\n      swap1\n      0x0100\n      exp\n      swap1\n      div\n      0xffffffffffffffffffffffffffffffffffffffff\n      and\n      dup2\n      jump\t// out\n        /* \"EdutraceLedger.sol\":830:1360  function issueCredential(address recipient, string memory cid) public onlyOwner returns (bytes32) {... */\n    tag_20:\n        /* \"EdutraceLedger.sol\":919:926  bytes32 */\n      0x00\n        /* \"EdutraceLedger.sol\":544:549  owner */\n      0x00\n      0x00\n      swap1\n      sload\n      swap1\n      0x0100\n      exp\n      swap1\n      div\n      0xffffffffffffffffffffffffffffffffffffffff\n      and\n        /* \"EdutraceLedger.sol\":530:549  msg.sender == owner */\n      0xffffffffffffffffffffffffffffffffffffffff\n      and\n        /* \"EdutraceLedger.sol\":530:540  msg.sender */\n      caller\n        /* \"EdutraceLedger.sol\":530:549  msg.sender == owner */\n      0xffffffffffffffffffffffffffffffffffffffff\n      and\n      eq\n        /* \"EdutraceLedger.sol\":522:568  require(msg.sender == owner, \"Not authorized\") */\n      tag_35\n      jumpi\n      mload(0x40)\n      0x08c379a000000000000000000000000000000000000000000000000000000000\n      dup2\n      mstore\n      0x04\n      add\n      tag_36\n      swap1\n      tag_37\n      jump\t// in\n    tag_36:\n      mload(0x40)\n      dup1\n      swap2\n      sub\n      swap1\n      revert\n    tag_35:\n        /* \"EdutraceLedger.sol\":1002:1018  bytes32 fileHash */\n      0x00\n        /* \"EdutraceLedger.sol\":1048:1057  recipient */\n      dup4\n        /* \"EdutraceLedger.sol\":1059:1062  cid */\n      dup4\n        /* \"EdutraceLedger.sol\":1031:1063  abi.encodePacked(recipient, cid) */\n      add(0x20, mload(0x40))\n      tag_39\n      swap3\n      swap2\n      swap1\n      tag_40\n      jump\t// in\n    tag_39:\n      mload(0x40)\n      0x20\n      dup2\n      dup4\n      sub\n      sub\n      dup2\n      mstore\n      swap1\n      0x40\n      mstore\n        /* \"EdutraceLedger.sol\":1021:1064  keccak256(abi.encodePacked(recipient, cid)) */\n      dup1\n      mload\n      swap1\n      0x20\n      add\n      keccak256\n        /* \"EdutraceLedger.sol\":1002:1064  bytes32 fileHash = keccak256(abi.encodePacked(recipient, cid)) */\n      swap1\n      pop\n        /* \"EdutraceLedger.sol\":1115:1119  true */\n      0x01\n        /* \"EdutraceLedger.sol\":1085:1102  verifiedDocuments */\n      dup1\n        /* \"EdutraceLedger.sol\":1085:1112  verifiedDocuments[fileHash] */\n      0x00\n        /* \"EdutraceLedger.sol\":1103:1111  fileHash */\n      dup4\n        /* \"EdutraceLedger.sol\":1085:1112  verifiedDocuments[fileHash] */\n      dup2\n      mstore\n      0x20\n      add\n      swap1\n      dup2\n      mstore\n      0x20\n      add\n      0x00\n      keccak256\n      0x00\n        /* \"EdutraceLedger.sol\":1085:1119  verifiedDocuments[fileHash] = true */\n      0x0100\n      exp\n      dup2\n      sload\n      dup2\n      0xff\n      mul\n      not\n      and\n      swap1\n      dup4\n      iszero\n      iszero\n      mul\n      or\n      swap1\n      sstore\n      pop\n        /* \"EdutraceLedger.sol\":1151:1279  DocumentRecord({... */\n      mload(0x40)\n      dup1\n      0x60\n      add\n      0x40\n      mstore\n      dup1\n        /* \"EdutraceLedger.sol\":1189:1199  msg.sender */\n      caller\n        /* \"EdutraceLedger.sol\":1151:1279  DocumentRecord({... */\n      0xffffffffffffffffffffffffffffffffffffffff\n      and\n      dup2\n      mstore\n      0x20\n      add\n        /* \"EdutraceLedger.sol\":1223:1226  cid */\n      dup5\n        /* \"EdutraceLedger.sol\":1151:1279  DocumentRecord({... */\n      dup2\n      mstore\n      0x20\n      add\n        /* \"EdutraceLedger.sol\":1252:1267  block.timestamp */\n      timestamp\n        /* \"EdutraceLedger.sol\":1151:1279  DocumentRecord({... */\n      dup2\n      mstore\n      pop\n        /* \"EdutraceLedger.sol\":1130:1138  registry */\n      0x02\n        /* \"EdutraceLedger.sol\":1130:1148  registry[fileHash] */\n      0x00\n        /* \"EdutraceLedger.sol\":1139:1147  fileHash */\n      dup4\n        /* \"EdutraceLedger.sol\":1130:1148  registry[fileHash] */\n      dup2\n      mstore\n      0x20\n      add\n      swap1\n      dup2\n      mstore\n      0x20\n      add\n      0x00\n      keccak256\n        /* \"EdutraceLedger.sol\":1130:1279  registry[fileHash] = DocumentRecord({... */\n      0x00\n      dup3\n      add\n      mload\n      dup2\n      0x00\n      add\n      exp(0x0100, 0x00)\n      dup2\n      sload\n      dup2\n      0xffffffffffffffffffffffffffffffffffffffff\n      mul\n      not\n      and\n      swap1\n      dup4\n      0xffffffffffffffffffffffffffffffffffffffff\n      and\n      mul\n      or\n      swap1\n      sstore\n      pop\n      0x20\n      dup3\n      add\n      mload\n      dup2\n      0x01\n      add\n      swap1\n      dup2\n      tag_41\n      swap2\n      swap1\n      tag_42\n      jump\t// in\n    tag_41:\n      pop\n      0x40\n      dup3\n      add\n      mload\n      dup2\n      0x02\n      add\n      sstore\n      swap1\n      pop\n      pop\n        /* \"EdutraceLedger.sol\":1312:1320  fileHash */\n      dup1\n        /* \"EdutraceLedger.sol\":1297:1326  DocumentMinted(fileHash, cid) */\n      0xa64bda6b3054e61306e1194a1ab64bc61bcf8059d7ecbaeaa6fcd1f344ee4104\n        /* \"EdutraceLedger.sol\":1322:1325  cid */\n      dup5\n        /* \"EdutraceLedger.sol\":1297:1326  DocumentMinted(fileHash, cid) */\n      mload(0x40)\n      tag_43\n      swap2\n      swap1\n      tag_44\n      jump\t// in\n    tag_43:\n      mload(0x40)\n      dup1\n      swap2\n      sub\n      swap1\n      log2\n        /* \"EdutraceLedger.sol\":1344:1352  fileHash */\n      dup1\n        /* \"EdutraceLedger.sol\":1337:1352  return fileHash */\n      swap2\n      pop\n      pop\n        /* \"EdutraceLedger.sol\":830:1360  function issueCredential(address recipient, string memory cid) public onlyOwner returns (bytes32) {... */\n      swap3\n      swap2\n      pop\n      pop\n      jump\t// out\n        /* \"EdutraceLedger.sol\":1446:1570  function verifyDocument(bytes32 _fileHash) public view returns (bool) {... */\n    tag_25:\n        /* \"EdutraceLedger.sol\":1510:1514  bool */\n      0x00\n        /* \"EdutraceLedger.sol\":1534:1551  verifiedDocuments */\n      0x01\n        /* \"EdutraceLedger.sol\":1534:1562  verifiedDocuments[_fileHash] */\n      0x00\n        /* \"EdutraceLedger.sol\":1552:1561  _fileHash */\n      dup4\n        /* \"EdutraceLedger.sol\":1534:1562  verifiedDocuments[_fileHash] */\n      dup2\n      mstore\n      0x20\n      add\n      swap1\n      dup2\n      mstore\n      0x20\n      add\n      0x00\n      keccak256\n      0x00\n      swap1\n      sload\n      swap1\n      0x0100\n      exp\n      swap1\n      div\n      0xff\n      and\n        /* \"EdutraceLedger.sol\":1527:1562  return verifiedDocuments[_fileHash] */\n      swap1\n      pop\n        /* \"EdutraceLedger.sol\":1446:1570  function verifyDocument(bytes32 _fileHash) public view returns (bool) {... */\n      swap2\n      swap1\n      pop\n      jump\t// out\n        /* \"#utility.yul\":7:82   */\n    tag_46:\n        /* \"#utility.yul\":40:46   */\n      0x00\n        /* \"#utility.yul\":73:75   */\n      0x40\n        /* \"#utility.yul\":67:76   */\n      mload\n        /* \"#utility.yul\":57:76   */\n      swap1\n      pop\n        /* \"#utility.yul\":7:82   */\n      swap1\n      jump\t// out\n        /* \"#utility.yul\":88:205   */\n    tag_47:\n        /* \"#utility.yul\":197:198   */\n      0x00\n        /* \"#utility.yul\":194:195   */\n      0x00\n        /* \"#utility.yul\":187:199   */\n      revert\n        /* \"#utility.yul\":211:328   */\n    tag_48:\n        /* \"#utility.yul\":320:321   */\n      0x00\n        /* \"#utility.yul\":317:318   */\n      0x00\n        /* \"#utility.yul\":310:322   */\n      revert\n        /* \"#utility.yul\":334:411   */\n    tag_49:\n        /* \"#utility.yul\":371:378   */\n      0x00\n        /* \"#utility.yul\":400:405   */\n      dup2\n        /* \"#utility.yul\":389:405   */\n      swap1\n      pop\n        /* \"#utility.yul\":334:411   */\n      swap2\n      swap1\n      pop\n      jump\t// out\n        /* \"#utility.yul\":417:539   */\n    tag_50:\n        /* \"#utility.yul\":490:514   */\n      tag_106\n        /* \"#utility.yul\":508:513   */\n      dup2\n        /* \"#utility.yul\":490:514   */\n      tag_49\n      jump\t// in\n    tag_106:\n        /* \"#utility.yul\":483:488   */\n      dup2\n        /* \"#utility.yul\":480:515   */\n      eq\n        /* \"#utility.yul\":470:533   */\n      tag_107\n      jumpi\n        /* \"#utility.yul\":529:530   */\n      0x00\n        /* \"#utility.yul\":526:527   */\n      0x00\n        /* \"#utility.yul\":519:531   */\n      revert\n        /* \"#utility.yul\":470:533   */\n    tag_107:\n        /* \"#utility.yul\":417:539   */\n      pop\n      jump\t// out\n        /* \"#utility.yul\":545:684   */\n    tag_51:\n        /* \"#utility.yul\":591:596   */\n      0x00\n        /* \"#utility.yul\":629:635   */\n      dup2\n        /* \"#utility.yul\":616:636   */\n      calldataload\n        /* \"#utility.yul\":607:636   */\n      swap1\n      pop\n        /* \"#utility.yul\":645:678   */\n      tag_109\n        /* \"#utility.yul\":672:677   */\n      dup2\n        /* \"#utility.yul\":645:678   */\n      tag_50\n      jump\t// in\n    tag_109:\n        /* \"#utility.yul\":545:684   */\n      swap3\n      swap2\n      pop\n      pop\n      jump\t// out\n        /* \"#utility.yul\":690:1019   */\n    tag_9:\n        /* \"#utility.yul\":749:755   */\n      0x00\n        /* \"#utility.yul\":798:800   */\n      0x20\n        /* \"#utility.yul\":786:795   */\n      dup3\n        /* \"#utility.yul\":777:784   */\n      dup5\n        /* \"#utility.yul\":773:796   */\n      sub\n        /* \"#utility.yul\":769:801   */\n      slt\n        /* \"#utility.yul\":766:885   */\n      iszero\n      tag_111\n      jumpi\n        /* \"#utility.yul\":804:883   */\n      tag_112\n      tag_47\n      jump\t// in\n    tag_112:\n        /* \"#utility.yul\":766:885   */\n    tag_111:\n        /* \"#utility.yul\":924:925   */\n      0x00\n        /* \"#utility.yul\":949:1002   */\n      tag_113\n        /* \"#utility.yul\":994:1001   */\n      dup5\n        /* \"#utility.yul\":985:991   */\n      dup3\n        /* \"#utility.yul\":974:983   */\n      dup6\n        /* \"#utility.yul\":970:992   */\n      add\n        /* \"#utility.yul\":949:1002   */\n      tag_51\n      jump\t// in\n    tag_113:\n        /* \"#utility.yul\":939:1002   */\n      swap2\n      pop\n        /* \"#utility.yul\":895:1012   */\n      pop\n        /* \"#utility.yul\":690:1019   */\n      swap3\n      swap2\n      pop\n      pop\n      jump\t// out\n        /* \"#utility.yul\":1025:1151   */\n    tag_52:\n        /* \"#utility.yul\":1062:1069   */\n      0x00\n        /* \"#utility.yul\":1102:1144   */\n      0xffffffffffffffffffffffffffffffffffffffff\n        /* \"#utility.yul\":1095:1100   */\n      dup3\n        /* \"#utility.yul\":1091:1145   */\n      and\n        /* \"#utility.yul\":1080:1145   */\n      swap1\n      pop\n        /* \"#utility.yul\":1025:1151   */\n      swap2\n      swap1\n      pop\n      jump\t// out\n        /* \"#utility.yul\":1157:1253   */\n    tag_53:\n        /* \"#utility.yul\":1194:1201   */\n      0x00\n        /* \"#utility.yul\":1223:1247   */\n      tag_116\n        /* \"#utility.yul\":1241:1246   */\n      dup3\n        /* \"#utility.yul\":1223:1247   */\n      tag_52\n      jump\t// in\n    tag_116:\n        /* \"#utility.yul\":1212:1247   */\n      swap1\n      pop\n        /* \"#utility.yul\":1157:1253   */\n      swap2\n      swap1\n      pop\n      jump\t// out\n        /* \"#utility.yul\":1259:1377   */\n    tag_54:\n        /* \"#utility.yul\":1346:1370   */\n      tag_118\n        /* \"#utility.yul\":1364:1369   */\n      dup2\n        /* \"#utility.yul\":1346:1370   */\n      tag_53\n      jump\t// in\n    tag_118:\n        /* \"#utility.yul\":1341:1344   */\n      dup3\n        /* \"#utility.yul\":1334:1371   */\n      mstore\n        /* \"#utility.yul\":1259:1377   */\n      pop\n      pop\n      jump\t// out\n        /* \"#utility.yul\":1383:1482   */\n    tag_55:\n        /* \"#utility.yul\":1435:1441   */\n      0x00\n        /* \"#utility.yul\":1469:1474   */\n      dup2\n        /* \"#utility.yul\":1463:1475   */\n      mload\n        /* \"#utility.yul\":1453:1475   */\n      swap1\n      pop\n        /* \"#utility.yul\":1383:1482   */\n      swap2\n      swap1\n      pop\n      jump\t// out\n        /* \"#utility.yul\":1488:1657   */\n    tag_56:\n        /* \"#utility.yul\":1572:1583   */\n      0x00\n        /* \"#utility.yul\":1606:1612   */\n      dup3\n        /* \"#utility.yul\":1601:1604   */\n      dup3\n        /* \"#utility.yul\":1594:1613   */\n      mstore\n        /* \"#utility.yul\":1646:1650   */\n      0x20\n        /* \"#utility.yul\":1641:1644   */\n      dup3\n        /* \"#utility.yul\":1637:1651   */\n      add\n        /* \"#utility.yul\":1622:1651   */\n      swap1\n      pop\n        /* \"#utility.yul\":1488:1657   */\n      swap3\n      swap2\n      pop\n      pop\n      jump\t// out\n        /* \"#utility.yul\":1663:1802   */\n    tag_57:\n        /* \"#utility.yul\":1752:1758   */\n      dup3\n        /* \"#utility.yul\":1747:1750   */\n      dup2\n        /* \"#utility.yul\":1742:1745   */\n      dup4\n        /* \"#utility.yul\":1736:1759   */\n      mcopy\n        /* \"#utility.yul\":1793:1794   */\n      0x00\n        /* \"#utility.yul\":1784:1790   */\n      dup4\n        /* \"#utility.yul\":1779:1782   */\n      dup4\n        /* \"#utility.yul\":1775:1791   */\n      add\n        /* \"#utility.yul\":1768:1795   */\n      mstore\n        /* \"#utility.yul\":1663:1802   */\n      pop\n      pop\n      pop\n      jump\t// out\n        /* \"#utility.yul\":1808:1910   */\n    tag_58:\n        /* \"#utility.yul\":1849:1855   */\n      0x00\n        /* \"#utility.yul\":1900:1902   */\n      0x1f\n        /* \"#utility.yul\":1896:1903   */\n      not\n        /* \"#utility.yul\":1891:1893   */\n      0x1f\n        /* \"#utility.yul\":1884:1889   */\n      dup4\n        /* \"#utility.yul\":1880:1894   */\n      add\n        /* \"#utility.yul\":1876:1904   */\n      and\n        /* \"#utility.yul\":1866:1904   */\n      swap1\n      pop\n        /* \"#utility.yul\":1808:1910   */\n      swap2\n      swap1\n      pop\n      jump\t// out\n        /* \"#utility.yul\":1916:2293   */\n    tag_59:\n        /* \"#utility.yul\":2004:2007   */\n      0x00\n        /* \"#utility.yul\":2032:2071   */\n      tag_124\n        /* \"#utility.yul\":2065:2070   */\n      dup3\n        /* \"#utility.yul\":2032:2071   */\n      tag_55\n      jump\t// in\n    tag_124:\n        /* \"#utility.yul\":2087:2158   */\n      tag_125\n        /* \"#utility.yul\":2151:2157   */\n      dup2\n        /* \"#utility.yul\":2146:2149   */\n      dup6\n        /* \"#utility.yul\":2087:2158   */\n      tag_56\n      jump\t// in\n    tag_125:\n        /* \"#utility.yul\":2080:2158   */\n      swap4\n      pop\n        /* \"#utility.yul\":2167:2232   */\n      tag_126\n        /* \"#utility.yul\":2225:2231   */\n      dup2\n        /* \"#utility.yul\":2220:2223   */\n      dup6\n        /* \"#utility.yul\":2213:2217   */\n      0x20\n        /* \"#utility.yul\":2206:2211   */\n      dup7\n        /* \"#utility.yul\":2202:2218   */\n      add\n        /* \"#utility.yul\":2167:2232   */\n      tag_57\n      jump\t// in\n    tag_126:\n        /* \"#utility.yul\":2257:2286   */\n      tag_127\n        /* \"#utility.yul\":2279:2285   */\n      dup2\n        /* \"#utility.yul\":2257:2286   */\n      tag_58\n      jump\t// in\n    tag_127:\n        /* \"#utility.yul\":2252:2255   */\n      dup5\n        /* \"#utility.yul\":2248:2287   */\n      add\n        /* \"#utility.yul\":2241:2287   */\n      swap2\n      pop\n        /* \"#utility.yul\":2008:2293   */\n      pop\n        /* \"#utility.yul\":1916:2293   */\n      swap3\n      swap2\n      pop\n      pop\n      jump\t// out\n        /* \"#utility.yul\":2299:2376   */\n    tag_60:\n        /* \"#utility.yul\":2336:2343   */\n      0x00\n        /* \"#utility.yul\":2365:2370   */\n      dup2\n        /* \"#utility.yul\":2354:2370   */\n      swap1\n      pop\n        /* \"#utility.yul\":2299:2376   */\n      swap2\n      swap1\n      pop\n      jump\t// out\n        /* \"#utility.yul\":2382:2500   */\n    tag_61:\n        /* \"#utility.yul\":2469:2493   */\n      tag_130\n        /* \"#utility.yul\":2487:2492   */\n      dup2\n        /* \"#utility.yul\":2469:2493   */\n      tag_60\n      jump\t// in\n    tag_130:\n        /* \"#utility.yul\":2464:2467   */\n      dup3\n        /* \"#utility.yul\":2457:2494   */\n      mstore\n        /* \"#utility.yul\":2382:2500   */\n      pop\n      pop\n      jump\t// out\n        /* \"#utility.yul\":2506:3039   */\n    tag_12:\n        /* \"#utility.yul\":2675:2679   */\n      0x00\n        /* \"#utility.yul\":2713:2715   */\n      0x60\n        /* \"#utility.yul\":2702:2711   */\n      dup3\n        /* \"#utility.yul\":2698:2716   */\n      add\n        /* \"#utility.yul\":2690:2716   */\n      swap1\n      pop\n        /* \"#utility.yul\":2726:2797   */\n      tag_132\n        /* \"#utility.yul\":2794:2795   */\n      0x00\n        /* \"#utility.yul\":2783:2792   */\n      dup4\n        /* \"#utility.yul\":2779:2796   */\n      add\n        /* \"#utility.yul\":2770:2776   */\n      dup7\n        /* \"#utility.yul\":2726:2797   */\n      tag_54\n      jump\t// in\n    tag_132:\n        /* \"#utility.yul\":2844:2853   */\n      dup2\n        /* \"#utility.yul\":2838:2842   */\n      dup2\n        /* \"#utility.yul\":2834:2854   */\n      sub\n        /* \"#utility.yul\":2829:2831   */\n      0x20\n        /* \"#utility.yul\":2818:2827   */\n      dup4\n        /* \"#utility.yul\":2814:2832   */\n      add\n        /* \"#utility.yul\":2807:2855   */\n      mstore\n        /* \"#utility.yul\":2872:2950   */\n      tag_133\n        /* \"#utility.yul\":2945:2949   */\n      dup2\n        /* \"#utility.yul\":2936:2942   */\n      dup6\n        /* \"#utility.yul\":2872:2950   */\n      tag_59\n      jump\t// in\n    tag_133:\n        /* \"#utility.yul\":2864:2950   */\n      swap1\n      pop\n        /* \"#utility.yul\":2960:3032   */\n      tag_134\n        /* \"#utility.yul\":3028:3030   */\n      0x40\n        /* \"#utility.yul\":3017:3026   */\n      dup4\n        /* \"#utility.yul\":3013:3031   */\n      add\n        /* \"#utility.yul\":3004:3010   */\n      dup5\n        /* \"#utility.yul\":2960:3032   */\n      tag_61\n      jump\t// in\n    tag_134:\n        /* \"#utility.yul\":2506:3039   */\n      swap5\n      swap4\n      pop\n      pop\n      pop\n      pop\n      jump\t// out\n        /* \"#utility.yul\":3045:3267   */\n    tag_16:\n        /* \"#utility.yul\":3138:3142   */\n      0x00\n        /* \"#utility.yul\":3176:3178   */\n      0x20\n        /* \"#utility.yul\":3165:3174   */\n      dup3\n        /* \"#utility.yul\":3161:3179   */\n      add\n        /* \"#utility.yul\":3153:3179   */\n      swap1\n      pop\n        /* \"#utility.yul\":3189:3260   */\n      tag_136\n        /* \"#utility.yul\":3257:3258   */\n      0x00\n        /* \"#utility.yul\":3246:3255   */\n      dup4\n        /* \"#utility.yul\":3242:3259   */\n      add\n        /* \"#utility.yul\":3233:3239   */\n      dup5\n        /* \"#utility.yul\":3189:3260   */\n      tag_54\n      jump\t// in\n    tag_136:\n        /* \"#utility.yul\":3045:3267   */\n      swap3\n      swap2\n      pop\n      pop\n      jump\t// out\n        /* \"#utility.yul\":3273:3395   */\n    tag_62:\n        /* \"#utility.yul\":3346:3370   */\n      tag_138\n        /* \"#utility.yul\":3364:3369   */\n      dup2\n        /* \"#utility.yul\":3346:3370   */\n      tag_53\n      jump\t// in\n    tag_138:\n        /* \"#utility.yul\":3339:3344   */\n      dup2\n        /* \"#utility.yul\":3336:3371   */\n      eq\n        /* \"#utility.yul\":3326:3389   */\n      tag_139\n      jumpi\n        /* \"#utility.yul\":3385:3386   */\n      0x00\n        /* \"#utility.yul\":3382:3383   */\n      0x00\n        /* \"#utility.yul\":3375:3387   */\n      revert\n        /* \"#utility.yul\":3326:3389   */\n    tag_139:\n        /* \"#utility.yul\":3273:3395   */\n      pop\n      jump\t// out\n        /* \"#utility.yul\":3401:3540   */\n    tag_63:\n        /* \"#utility.yul\":3447:3452   */\n      0x00\n        /* \"#utility.yul\":3485:3491   */\n      dup2\n        /* \"#utility.yul\":3472:3492   */\n      calldataload\n        /* \"#utility.yul\":3463:3492   */\n      swap1\n      pop\n        /* \"#utility.yul\":3501:3534   */\n      tag_141\n        /* \"#utility.yul\":3528:3533   */\n      dup2\n        /* \"#utility.yul\":3501:3534   */\n      tag_62\n      jump\t// in\n    tag_141:\n        /* \"#utility.yul\":3401:3540   */\n      swap3\n      swap2\n      pop\n      pop\n      jump\t// out\n        /* \"#utility.yul\":3546:3663   */\n    tag_64:\n        /* \"#utility.yul\":3655:3656   */\n      0x00\n        /* \"#utility.yul\":3652:3653   */\n      0x00\n        /* \"#utility.yul\":3645:3657   */\n      revert\n        /* \"#utility.yul\":3669:3786   */\n    tag_65:\n        /* \"#utility.yul\":3778:3779   */\n      0x00\n        /* \"#utility.yul\":3775:3776   */\n      0x00\n        /* \"#utility.yul\":3768:3780   */\n      revert\n        /* \"#utility.yul\":3792:3972   */\n    tag_66:\n        /* \"#utility.yul\":3840:3917   */\n      0x4e487b7100000000000000000000000000000000000000000000000000000000\n        /* \"#utility.yul\":3837:3838   */\n      0x00\n        /* \"#utility.yul\":3830:3918   */\n      mstore\n        /* \"#utility.yul\":3937:3941   */\n      0x41\n        /* \"#utility.yul\":3934:3935   */\n      0x04\n        /* \"#utility.yul\":3927:3942   */\n      mstore\n        /* \"#utility.yul\":3961:3965   */\n      0x24\n        /* \"#utility.yul\":3958:3959   */\n      0x00\n        /* \"#utility.yul\":3951:3966   */\n      revert\n        /* \"#utility.yul\":3978:4259   */\n    tag_67:\n        /* \"#utility.yul\":4061:4088   */\n      tag_146\n        /* \"#utility.yul\":4083:4087   */\n      dup3\n        /* \"#utility.yul\":4061:4088   */\n      tag_58\n      jump\t// in\n    tag_146:\n        /* \"#utility.yul\":4053:4059   */\n      dup2\n        /* \"#utility.yul\":4049:4089   */\n      add\n        /* \"#utility.yul\":4191:4197   */\n      dup2\n        /* \"#utility.yul\":4179:4189   */\n      dup2\n        /* \"#utility.yul\":4176:4198   */\n      lt\n        /* \"#utility.yul\":4155:4173   */\n      0xffffffffffffffff\n        /* \"#utility.yul\":4143:4153   */\n      dup3\n        /* \"#utility.yul\":4140:4174   */\n      gt\n        /* \"#utility.yul\":4137:4199   */\n      or\n        /* \"#utility.yul\":4134:4222   */\n      iszero\n      tag_147\n      jumpi\n        /* \"#utility.yul\":4202:4220   */\n      tag_148\n      tag_66\n      jump\t// in\n    tag_148:\n        /* \"#utility.yul\":4134:4222   */\n    tag_147:\n        /* \"#utility.yul\":4242:4252   */\n      dup1\n        /* \"#utility.yul\":4238:4240   */\n      0x40\n        /* \"#utility.yul\":4231:4253   */\n      mstore\n        /* \"#utility.yul\":4021:4259   */\n      pop\n        /* \"#utility.yul\":3978:4259   */\n      pop\n      pop\n      jump\t// out\n        /* \"#utility.yul\":4265:4394   */\n    tag_68:\n        /* \"#utility.yul\":4299:4305   */\n      0x00\n        /* \"#utility.yul\":4326:4346   */\n      tag_150\n      tag_46\n      jump\t// in\n    tag_150:\n        /* \"#utility.yul\":4316:4346   */\n      swap1\n      pop\n        /* \"#utility.yul\":4355:4388   */\n      tag_151\n        /* \"#utility.yul\":4383:4387   */\n      dup3\n        /* \"#utility.yul\":4375:4381   */\n      dup3\n        /* \"#utility.yul\":4355:4388   */\n      tag_67\n      jump\t// in\n    tag_151:\n        /* \"#utility.yul\":4265:4394   */\n      swap2\n      swap1\n      pop\n      jump\t// out\n        /* \"#utility.yul\":4400:4708   */\n    tag_69:\n        /* \"#utility.yul\":4462:4466   */\n      0x00\n        /* \"#utility.yul\":4552:4570   */\n      0xffffffffffffffff\n        /* \"#utility.yul\":4544:4550   */\n      dup3\n        /* \"#utility.yul\":4541:4571   */\n      gt\n        /* \"#utility.yul\":4538:4594   */\n      iszero\n      tag_153\n      jumpi\n        /* \"#utility.yul\":4574:4592   */\n      tag_154\n      tag_66\n      jump\t// in\n    tag_154:\n        /* \"#utility.yul\":4538:4594   */\n    tag_153:\n        /* \"#utility.yul\":4612:4641   */\n      tag_155\n        /* \"#utility.yul\":4634:4640   */\n      dup3\n        /* \"#utility.yul\":4612:4641   */\n      tag_58\n      jump\t// in\n    tag_155:\n        /* \"#utility.yul\":4604:4641   */\n      swap1\n      pop\n        /* \"#utility.yul\":4696:4700   */\n      0x20\n        /* \"#utility.yul\":4690:4694   */\n      dup2\n        /* \"#utility.yul\":4686:4701   */\n      add\n        /* \"#utility.yul\":4678:4701   */\n      swap1\n      pop\n        /* \"#utility.yul\":4400:4708   */\n      swap2\n      swap1\n      pop\n      jump\t// out\n        /* \"#utility.yul\":4714:4862   */\n    tag_70:\n        /* \"#utility.yul\":4812:4818   */\n      dup3\n        /* \"#utility.yul\":4807:4810   */\n      dup2\n        /* \"#utility.yul\":4802:4805   */\n      dup4\n        /* \"#utility.yul\":4789:4819   */\n      calldatacopy\n        /* \"#utility.yul\":4853:4854   */\n      0x00\n        /* \"#utility.yul\":4844:4850   */\n      dup4\n        /* \"#utility.yul\":4839:4842   */\n      dup4\n        /* \"#utility.yul\":4835:4851   */\n      add\n        /* \"#utility.yul\":4828:4855   */\n      mstore\n        /* \"#utility.yul\":4714:4862   */\n      pop\n      pop\n      pop\n      jump\t// out\n        /* \"#utility.yul\":4868:5293   */\n    tag_71:\n        /* \"#utility.yul\":4946:4951   */\n      0x00\n        /* \"#utility.yul\":4971:5037   */\n      tag_158\n        /* \"#utility.yul\":4987:5036   */\n      tag_159\n        /* \"#utility.yul\":5029:5035   */\n      dup5\n        /* \"#utility.yul\":4987:5036   */\n      tag_69\n      jump\t// in\n    tag_159:\n        /* \"#utility.yul\":4971:5037   */\n      tag_68\n      jump\t// in\n    tag_158:\n        /* \"#utility.yul\":4962:5037   */\n      swap1\n      pop\n        /* \"#utility.yul\":5060:5066   */\n      dup3\n        /* \"#utility.yul\":5053:5058   */\n      dup2\n        /* \"#utility.yul\":5046:5067   */\n      mstore\n        /* \"#utility.yul\":5098:5102   */\n      0x20\n        /* \"#utility.yul\":5091:5096   */\n      dup2\n        /* \"#utility.yul\":5087:5103   */\n      add\n        /* \"#utility.yul\":5136:5139   */\n      dup5\n        /* \"#utility.yul\":5127:5133   */\n      dup5\n        /* \"#utility.yul\":5122:5125   */\n      dup5\n        /* \"#utility.yul\":5118:5134   */\n      add\n        /* \"#utility.yul\":5115:5140   */\n      gt\n        /* \"#utility.yul\":5112:5224   */\n      iszero\n      tag_160\n      jumpi\n        /* \"#utility.yul\":5143:5222   */\n      tag_161\n      tag_65\n      jump\t// in\n    tag_161:\n        /* \"#utility.yul\":5112:5224   */\n    tag_160:\n        /* \"#utility.yul\":5233:5287   */\n      tag_162\n        /* \"#utility.yul\":5280:5286   */\n      dup5\n        /* \"#utility.yul\":5275:5278   */\n      dup3\n        /* \"#utility.yul\":5270:5273   */\n      dup6\n        /* \"#utility.yul\":5233:5287   */\n      tag_70\n      jump\t// in\n    tag_162:\n        /* \"#utility.yul\":4952:5293   */\n      pop\n        /* \"#utility.yul\":4868:5293   */\n      swap4\n      swap3\n      pop\n      pop\n      pop\n      jump\t// out\n        /* \"#utility.yul\":5313:5653   */\n    tag_72:\n        /* \"#utility.yul\":5369:5374   */\n      0x00\n        /* \"#utility.yul\":5418:5421   */\n      dup3\n        /* \"#utility.yul\":5411:5415   */\n      0x1f\n        /* \"#utility.yul\":5403:5409   */\n      dup4\n        /* \"#utility.yul\":5399:5416   */\n      add\n        /* \"#utility.yul\":5395:5422   */\n      slt\n        /* \"#utility.yul\":5385:5507   */\n      tag_164\n      jumpi\n        /* \"#utility.yul\":5426:5505   */\n      tag_165\n      tag_64\n      jump\t// in\n    tag_165:\n        /* \"#utility.yul\":5385:5507   */\n    tag_164:\n        /* \"#utility.yul\":5543:5549   */\n      dup2\n        /* \"#utility.yul\":5530:5550   */\n      calldataload\n        /* \"#utility.yul\":5568:5647   */\n      tag_166\n        /* \"#utility.yul\":5643:5646   */\n      dup5\n        /* \"#utility.yul\":5635:5641   */\n      dup3\n        /* \"#utility.yul\":5628:5632   */\n      0x20\n        /* \"#utility.yul\":5620:5626   */\n      dup7\n        /* \"#utility.yul\":5616:5633   */\n      add\n        /* \"#utility.yul\":5568:5647   */\n      tag_71\n      jump\t// in\n    tag_166:\n        /* \"#utility.yul\":5559:5647   */\n      swap2\n      pop\n        /* \"#utility.yul\":5375:5653   */\n      pop\n        /* \"#utility.yul\":5313:5653   */\n      swap3\n      swap2\n      pop\n      pop\n      jump\t// out\n        /* \"#utility.yul\":5659:6313   */\n    tag_19:\n        /* \"#utility.yul\":5737:5743   */\n      0x00\n        /* \"#utility.yul\":5745:5751   */\n      0x00\n        /* \"#utility.yul\":5794:5796   */\n      0x40\n        /* \"#utility.yul\":5782:5791   */\n      dup4\n        /* \"#utility.yul\":5773:5780   */\n      dup6\n        /* \"#utility.yul\":5769:5792   */\n      sub\n        /* \"#utility.yul\":5765:5797   */\n      slt\n        /* \"#utility.yul\":5762:5881   */\n      iszero\n      tag_168\n      jumpi\n        /* \"#utility.yul\":5800:5879   */\n      tag_169\n      tag_47\n      jump\t// in\n    tag_169:\n        /* \"#utility.yul\":5762:5881   */\n    tag_168:\n        /* \"#utility.yul\":5920:5921   */\n      0x00\n        /* \"#utility.yul\":5945:5998   */\n      tag_170\n        /* \"#utility.yul\":5990:5997   */\n      dup6\n        /* \"#utility.yul\":5981:5987   */\n      dup3\n        /* \"#utility.yul\":5970:5979   */\n      dup7\n        /* \"#utility.yul\":5966:5988   */\n      add\n        /* \"#utility.yul\":5945:5998   */\n      tag_63\n      jump\t// in\n    tag_170:\n        /* \"#utility.yul\":5935:5998   */\n      swap3\n      pop\n        /* \"#utility.yul\":5891:6008   */\n      pop\n        /* \"#utility.yul\":6075:6077   */\n      0x20\n        /* \"#utility.yul\":6064:6073   */\n      dup4\n        /* \"#utility.yul\":6060:6078   */\n      add\n        /* \"#utility.yul\":6047:6079   */\n      calldataload\n        /* \"#utility.yul\":6106:6124   */\n      0xffffffffffffffff\n        /* \"#utility.yul\":6098:6104   */\n      dup2\n        /* \"#utility.yul\":6095:6125   */\n      gt\n        /* \"#utility.yul\":6092:6209   */\n      iszero\n      tag_171\n      jumpi\n        /* \"#utility.yul\":6128:6207   */\n      tag_172\n      tag_48\n      jump\t// in\n    tag_172:\n        /* \"#utility.yul\":6092:6209   */\n    tag_171:\n        /* \"#utility.yul\":6233:6296   */\n      tag_173\n        /* \"#utility.yul\":6288:6295   */\n      dup6\n        /* \"#utility.yul\":6279:6285   */\n      dup3\n        /* \"#utility.yul\":6268:6277   */\n      dup7\n        /* \"#utility.yul\":6264:6286   */\n      add\n        /* \"#utility.yul\":6233:6296   */\n      tag_72\n      jump\t// in\n    tag_173:\n        /* \"#utility.yul\":6223:6296   */\n      swap2\n      pop\n        /* \"#utility.yul\":6018:6306   */\n      pop\n        /* \"#utility.yul\":5659:6313   */\n      swap3\n      pop\n      swap3\n      swap1\n      pop\n      jump\t// out\n        /* \"#utility.yul\":6319:6437   */\n    tag_73:\n        /* \"#utility.yul\":6406:6430   */\n      tag_175\n        /* \"#utility.yul\":6424:6429   */\n      dup2\n        /* \"#utility.yul\":6406:6430   */\n      tag_49\n      jump\t// in\n    tag_175:\n        /* \"#utility.yul\":6401:6404   */\n      dup3\n        /* \"#utility.yul\":6394:6431   */\n      mstore\n        /* \"#utility.yul\":6319:6437   */\n      pop\n      pop\n      jump\t// out\n        /* \"#utility.yul\":6443:6665   */\n    tag_22:\n        /* \"#utility.yul\":6536:6540   */\n      0x00\n        /* \"#utility.yul\":6574:6576   */\n      0x20\n        /* \"#utility.yul\":6563:6572   */\n      dup3\n        /* \"#utility.yul\":6559:6577   */\n      add\n        /* \"#utility.yul\":6551:6577   */\n      swap1\n      pop\n        /* \"#utility.yul\":6587:6658   */\n      tag_177\n        /* \"#utility.yul\":6655:6656   */\n      0x00\n        /* \"#utility.yul\":6644:6653   */\n      dup4\n        /* \"#utility.yul\":6640:6657   */\n      add\n        /* \"#utility.yul\":6631:6637   */\n      dup5\n        /* \"#utility.yul\":6587:6658   */\n      tag_73\n      jump\t// in\n    tag_177:\n        /* \"#utility.yul\":6443:6665   */\n      swap3\n      swap2\n      pop\n      pop\n      jump\t// out\n        /* \"#utility.yul\":6671:6761   */\n    tag_74:\n        /* \"#utility.yul\":6705:6712   */\n      0x00\n        /* \"#utility.yul\":6748:6753   */\n      dup2\n        /* \"#utility.yul\":6741:6754   */\n      iszero\n        /* \"#utility.yul\":6734:6755   */\n      iszero\n        /* \"#utility.yul\":6723:6755   */\n      swap1\n      pop\n        /* \"#utility.yul\":6671:6761   */\n      swap2\n      swap1\n      pop\n      jump\t// out\n        /* \"#utility.yul\":6767:6876   */\n    tag_75:\n        /* \"#utility.yul\":6848:6869   */\n      tag_180\n        /* \"#utility.yul\":6863:6868   */\n      dup2\n        /* \"#utility.yul\":6848:6869   */\n      tag_74\n      jump\t// in\n    tag_180:\n        /* \"#utility.yul\":6843:6846   */\n      dup3\n        /* \"#utility.yul\":6836:6870   */\n      mstore\n        /* \"#utility.yul\":6767:6876   */\n      pop\n      pop\n      jump\t// out\n        /* \"#utility.yul\":6882:7092   */\n    tag_27:\n        /* \"#utility.yul\":6969:6973   */\n      0x00\n        /* \"#utility.yul\":7007:7009   */\n      0x20\n        /* \"#utility.yul\":6996:7005   */\n      dup3\n        /* \"#utility.yul\":6992:7010   */\n      add\n        /* \"#utility.yul\":6984:7010   */\n      swap1\n      pop\n        /* \"#utility.yul\":7020:7085   */\n      tag_182\n        /* \"#utility.yul\":7082:7083   */\n      0x00\n        /* \"#utility.yul\":7071:7080   */\n      dup4\n        /* \"#utility.yul\":7067:7084   */\n      add\n        /* \"#utility.yul\":7058:7064   */\n      dup5\n        /* \"#utility.yul\":7020:7085   */\n      tag_75\n      jump\t// in\n    tag_182:\n        /* \"#utility.yul\":6882:7092   */\n      swap3\n      swap2\n      pop\n      pop\n      jump\t// out\n        /* \"#utility.yul\":7098:7278   */\n    tag_76:\n        /* \"#utility.yul\":7146:7223   */\n      0x4e487b7100000000000000000000000000000000000000000000000000000000\n        /* \"#utility.yul\":7143:7144   */\n      0x00\n        /* \"#utility.yul\":7136:7224   */\n      mstore\n        /* \"#utility.yul\":7243:7247   */\n      0x22\n        /* \"#utility.yul\":7240:7241   */\n      0x04\n        /* \"#utility.yul\":7233:7248   */\n      mstore\n        /* \"#utility.yul\":7267:7271   */\n      0x24\n        /* \"#utility.yul\":7264:7265   */\n      0x00\n        /* \"#utility.yul\":7257:7272   */\n      revert\n        /* \"#utility.yul\":7284:7604   */\n    tag_29:\n        /* \"#utility.yul\":7328:7334   */\n      0x00\n        /* \"#utility.yul\":7365:7366   */\n      0x02\n        /* \"#utility.yul\":7359:7363   */\n      dup3\n        /* \"#utility.yul\":7355:7367   */\n      div\n        /* \"#utility.yul\":7345:7367   */\n      swap1\n      pop\n        /* \"#utility.yul\":7412:7413   */\n      0x01\n        /* \"#utility.yul\":7406:7410   */\n      dup3\n        /* \"#utility.yul\":7402:7414   */\n      and\n        /* \"#utility.yul\":7433:7451   */\n      dup1\n        /* \"#utility.yul\":7423:7504   */\n      tag_185\n      jumpi\n        /* \"#utility.yul\":7489:7493   */\n      0x7f\n        /* \"#utility.yul\":7481:7487   */\n      dup3\n        /* \"#utility.yul\":7477:7494   */\n      and\n        /* \"#utility.yul\":7467:7494   */\n      swap2\n      pop\n        /* \"#utility.yul\":7423:7504   */\n    tag_185:\n        /* \"#utility.yul\":7551:7553   */\n      0x20\n        /* \"#utility.yul\":7543:7549   */\n      dup3\n        /* \"#utility.yul\":7540:7554   */\n      lt\n        /* \"#utility.yul\":7520:7538   */\n      dup2\n        /* \"#utility.yul\":7517:7555   */\n      sub\n        /* \"#utility.yul\":7514:7598   */\n      tag_186\n      jumpi\n        /* \"#utility.yul\":7570:7588   */\n      tag_187\n      tag_76\n      jump\t// in\n    tag_187:\n        /* \"#utility.yul\":7514:7598   */\n    tag_186:\n        /* \"#utility.yul\":7335:7604   */\n      pop\n        /* \"#utility.yul\":7284:7604   */\n      swap2\n      swap1\n      pop\n      jump\t// out\n        /* \"#utility.yul\":7610:7774   */\n    tag_77:\n        /* \"#utility.yul\":7750:7766   */\n      0x4e6f7420617574686f72697a6564000000000000000000000000000000000000\n        /* \"#utility.yul\":7746:7747   */\n      0x00\n        /* \"#utility.yul\":7738:7744   */\n      dup3\n        /* \"#utility.yul\":7734:7748   */\n      add\n        /* \"#utility.yul\":7727:7767   */\n      mstore\n        /* \"#utility.yul\":7610:7774   */\n      pop\n      jump\t// out\n        /* \"#utility.yul\":7780:8146   */\n    tag_78:\n        /* \"#utility.yul\":7922:7925   */\n      0x00\n        /* \"#utility.yul\":7943:8010   */\n      tag_190\n        /* \"#utility.yul\":8007:8009   */\n      0x0e\n        /* \"#utility.yul\":8002:8005   */\n      dup4\n        /* \"#utility.yul\":7943:8010   */\n      tag_56\n      jump\t// in\n    tag_190:\n        /* \"#utility.yul\":7936:8010   */\n      swap2\n      pop\n        /* \"#utility.yul\":8019:8112   */\n      tag_191\n        /* \"#utility.yul\":8108:8111   */\n      dup3\n        /* \"#utility.yul\":8019:8112   */\n      tag_77\n      jump\t// in\n    tag_191:\n        /* \"#utility.yul\":8137:8139   */\n      0x20\n        /* \"#utility.yul\":8132:8135   */\n      dup3\n        /* \"#utility.yul\":8128:8140   */\n      add\n        /* \"#utility.yul\":8121:8140   */\n      swap1\n      pop\n        /* \"#utility.yul\":7780:8146   */\n      swap2\n      swap1\n      pop\n      jump\t// out\n        /* \"#utility.yul\":8152:8571   */\n    tag_37:\n        /* \"#utility.yul\":8318:8322   */\n      0x00\n        /* \"#utility.yul\":8356:8358   */\n      0x20\n        /* \"#utility.yul\":8345:8354   */\n      dup3\n        /* \"#utility.yul\":8341:8359   */\n      add\n        /* \"#utility.yul\":8333:8359   */\n      swap1\n      pop\n        /* \"#utility.yul\":8405:8414   */\n      dup2\n        /* \"#utility.yul\":8399:8403   */\n      dup2\n        /* \"#utility.yul\":8395:8415   */\n      sub\n        /* \"#utility.yul\":8391:8392   */\n      0x00\n        /* \"#utility.yul\":8380:8389   */\n      dup4\n        /* \"#utility.yul\":8376:8393   */\n      add\n        /* \"#utility.yul\":8369:8416   */\n      mstore\n        /* \"#utility.yul\":8433:8564   */\n      tag_193\n        /* \"#utility.yul\":8559:8563   */\n      dup2\n        /* \"#utility.yul\":8433:8564   */\n      tag_78\n      jump\t// in\n    tag_193:\n        /* \"#utility.yul\":8425:8564   */\n      swap1\n      pop\n        /* \"#utility.yul\":8152:8571   */\n      swap2\n      swap1\n      pop\n      jump\t// out\n        /* \"#utility.yul\":8577:8671   */\n    tag_79:\n        /* \"#utility.yul\":8610:8618   */\n      0x00\n        /* \"#utility.yul\":8658:8663   */\n      dup2\n        /* \"#utility.yul\":8654:8656   */\n      0x60\n        /* \"#utility.yul\":8650:8664   */\n      shl\n        /* \"#utility.yul\":8629:8664   */\n      swap1\n      pop\n        /* \"#utility.yul\":8577:8671   */\n      swap2\n      swap1\n      pop\n      jump\t// out\n        /* \"#utility.yul\":8677:8771   */\n    tag_80:\n        /* \"#utility.yul\":8716:8723   */\n      0x00\n        /* \"#utility.yul\":8745:8765   */\n      tag_196\n        /* \"#utility.yul\":8759:8764   */\n      dup3\n        /* \"#utility.yul\":8745:8765   */\n      tag_79\n      jump\t// in\n    tag_196:\n        /* \"#utility.yul\":8734:8765   */\n      swap1\n      pop\n        /* \"#utility.yul\":8677:8771   */\n      swap2\n      swap1\n      pop\n      jump\t// out\n        /* \"#utility.yul\":8777:8877   */\n    tag_81:\n        /* \"#utility.yul\":8816:8823   */\n      0x00\n        /* \"#utility.yul\":8845:8871   */\n      tag_198\n        /* \"#utility.yul\":8865:8870   */\n      dup3\n        /* \"#utility.yul\":8845:8871   */\n      tag_80\n      jump\t// in\n    tag_198:\n        /* \"#utility.yul\":8834:8871   */\n      swap1\n      pop\n        /* \"#utility.yul\":8777:8877   */\n      swap2\n      swap1\n      pop\n      jump\t// out\n        /* \"#utility.yul\":8883:9040   */\n    tag_82:\n        /* \"#utility.yul\":8988:9033   */\n      tag_200\n        /* \"#utility.yul\":9008:9032   */\n      tag_201\n        /* \"#utility.yul\":9026:9031   */\n      dup3\n        /* \"#utility.yul\":9008:9032   */\n      tag_53\n      jump\t// in\n    tag_201:\n        /* \"#utility.yul\":8988:9033   */\n      tag_81\n      jump\t// in\n    tag_200:\n        /* \"#utility.yul\":8983:8986   */\n      dup3\n        /* \"#utility.yul\":8976:9034   */\n      mstore\n        /* \"#utility.yul\":8883:9040   */\n      pop\n      pop\n      jump\t// out\n        /* \"#utility.yul\":9046:9194   */\n    tag_83:\n        /* \"#utility.yul\":9148:9159   */\n      0x00\n        /* \"#utility.yul\":9185:9188   */\n      dup2\n        /* \"#utility.yul\":9170:9188   */\n      swap1\n      pop\n        /* \"#utility.yul\":9046:9194   */\n      swap3\n      swap2\n      pop\n      pop\n      jump\t// out\n        /* \"#utility.yul\":9200:9590   */\n    tag_84:\n        /* \"#utility.yul\":9306:9309   */\n      0x00\n        /* \"#utility.yul\":9334:9373   */\n      tag_204\n        /* \"#utility.yul\":9367:9372   */\n      dup3\n        /* \"#utility.yul\":9334:9373   */\n      tag_55\n      jump\t// in\n    tag_204:\n        /* \"#utility.yul\":9389:9478   */\n      tag_205\n        /* \"#utility.yul\":9471:9477   */\n      dup2\n        /* \"#utility.yul\":9466:9469   */\n      dup6\n        /* \"#utility.yul\":9389:9478   */\n      tag_83\n      jump\t// in\n    tag_205:\n        /* \"#utility.yul\":9382:9478   */\n      swap4\n      pop\n        /* \"#utility.yul\":9487:9552   */\n      tag_206\n        /* \"#utility.yul\":9545:9551   */\n      dup2\n        /* \"#utility.yul\":9540:9543   */\n      dup6\n        /* \"#utility.yul\":9533:9537   */\n      0x20\n        /* \"#utility.yul\":9526:9531   */\n      dup7\n        /* \"#utility.yul\":9522:9538   */\n      add\n        /* \"#utility.yul\":9487:9552   */\n      tag_57\n      jump\t// in\n    tag_206:\n        /* \"#utility.yul\":9577:9583   */\n      dup1\n        /* \"#utility.yul\":9572:9575   */\n      dup5\n        /* \"#utility.yul\":9568:9584   */\n      add\n        /* \"#utility.yul\":9561:9584   */\n      swap2\n      pop\n        /* \"#utility.yul\":9310:9590   */\n      pop\n        /* \"#utility.yul\":9200:9590   */\n      swap3\n      swap2\n      pop\n      pop\n      jump\t// out\n        /* \"#utility.yul\":9596:10012   */\n    tag_40:\n        /* \"#utility.yul\":9756:9759   */\n      0x00\n        /* \"#utility.yul\":9771:9846   */\n      tag_208\n        /* \"#utility.yul\":9842:9845   */\n      dup3\n        /* \"#utility.yul\":9833:9839   */\n      dup6\n        /* \"#utility.yul\":9771:9846   */\n      tag_82\n      jump\t// in\n    tag_208:\n        /* \"#utility.yul\":9871:9873   */\n      0x14\n        /* \"#utility.yul\":9866:9869   */\n      dup3\n        /* \"#utility.yul\":9862:9874   */\n      add\n        /* \"#utility.yul\":9855:9874   */\n      swap2\n      pop\n        /* \"#utility.yul\":9891:9986   */\n      tag_209\n        /* \"#utility.yul\":9982:9985   */\n      dup3\n        /* \"#utility.yul\":9973:9979   */\n      dup5\n        /* \"#utility.yul\":9891:9986   */\n      tag_84\n      jump\t// in\n    tag_209:\n        /* \"#utility.yul\":9884:9986   */\n      swap2\n      pop\n        /* \"#utility.yul\":10003:10006   */\n      dup2\n        /* \"#utility.yul\":9996:10006   */\n      swap1\n      pop\n        /* \"#utility.yul\":9596:10012   */\n      swap4\n      swap3\n      pop\n      pop\n      pop\n      jump\t// out\n        /* \"#utility.yul\":10018:10159   */\n    tag_85:\n        /* \"#utility.yul\":10067:10071   */\n      0x00\n        /* \"#utility.yul\":10090:10093   */\n      dup2\n        /* \"#utility.yul\":10082:10093   */\n      swap1\n      pop\n        /* \"#utility.yul\":10113:10116   */\n      dup2\n        /* \"#utility.yul\":10110:10111   */\n      0x00\n        /* \"#utility.yul\":10103:10117   */\n      mstore\n        /* \"#utility.yul\":10147:10151   */\n      0x20\n        /* \"#utility.yul\":10144:10145   */\n      0x00\n        /* \"#utility.yul\":10134:10152   */\n      keccak256\n        /* \"#utility.yul\":10126:10152   */\n      swap1\n      pop\n        /* \"#utility.yul\":10018:10159   */\n      swap2\n      swap1\n      pop\n      jump\t// out\n        /* \"#utility.yul\":10165:10258   */\n    tag_86:\n        /* \"#utility.yul\":10202:10208   */\n      0x00\n        /* \"#utility.yul\":10249:10251   */\n      0x20\n        /* \"#utility.yul\":10244:10246   */\n      0x1f\n        /* \"#utility.yul\":10237:10242   */\n      dup4\n        /* \"#utility.yul\":10233:10247   */\n      add\n        /* \"#utility.yul\":10229:10252   */\n      div\n        /* \"#utility.yul\":10219:10252   */\n      swap1\n      pop\n        /* \"#utility.yul\":10165:10258   */\n      swap2\n      swap1\n      pop\n      jump\t// out\n        /* \"#utility.yul\":10264:10371   */\n    tag_87:\n        /* \"#utility.yul\":10308:10316   */\n      0x00\n        /* \"#utility.yul\":10358:10363   */\n      dup3\n        /* \"#utility.yul\":10352:10356   */\n      dup3\n        /* \"#utility.yul\":10348:10364   */\n      shl\n        /* \"#utility.yul\":10327:10364   */\n      swap1\n      pop\n        /* \"#utility.yul\":10264:10371   */\n      swap3\n      swap2\n      pop\n      pop\n      jump\t// out\n        /* \"#utility.yul\":10377:10770   */\n    tag_88:\n        /* \"#utility.yul\":10446:10452   */\n      0x00\n        /* \"#utility.yul\":10496:10497   */\n      0x08\n        /* \"#utility.yul\":10484:10494   */\n      dup4\n        /* \"#utility.yul\":10480:10498   */\n      mul\n        /* \"#utility.yul\":10519:10616   */\n      tag_214\n        /* \"#utility.yul\":10549:10615   */\n      0xffffffffffffffffffffffffffffffffffffffffffffffffffffffffffffffff\n        /* \"#utility.yul\":10538:10547   */\n      dup3\n        /* \"#utility.yul\":10519:10616   */\n      tag_87\n      jump\t// in\n    tag_214:\n        /* \"#utility.yul\":10637:10676   */\n      tag_215\n        /* \"#utility.yul\":10667:10675   */\n      dup7\n        /* \"#utility.yul\":10656:10665   */\n      dup4\n        /* \"#utility.yul\":10637:10676   */\n      tag_87\n      jump\t// in\n    tag_215:\n        /* \"#utility.yul\":10625:10676   */\n      swap6\n      pop\n        /* \"#utility.yul\":10709:10713   */\n      dup1\n        /* \"#utility.yul\":10705:10714   */\n      not\n        /* \"#utility.yul\":10698:10703   */\n      dup5\n        /* \"#utility.yul\":10694:10715   */\n      and\n        /* \"#utility.yul\":10685:10715   */\n      swap4\n      pop\n        /* \"#utility.yul\":10758:10762   */\n      dup1\n        /* \"#utility.yul\":10748:10756   */\n      dup7\n        /* \"#utility.yul\":10744:10763   */\n      and\n        /* \"#utility.yul\":10737:10742   */\n      dup5\n        /* \"#utility.yul\":10734:10764   */\n      or\n        /* \"#utility.yul\":10724:10764   */\n      swap3\n      pop\n        /* \"#utility.yul\":10453:10770   */\n      pop\n      pop\n        /* \"#utility.yul\":10377:10770   */\n      swap4\n      swap3\n      pop\n      pop\n      pop\n      jump\t// out\n        /* \"#utility.yul\":10776:10836   */\n    tag_89:\n        /* \"#utility.yul\":10804:10807   */\n      0x00\n        /* \"#utility.yul\":10825:10830   */\n      dup2\n        /* \"#utility.yul\":10818:10830   */\n      swap1\n      pop\n        /* \"#utility.yul\":10776:10836   */\n      swap2\n      swap1\n      pop\n      jump\t// out\n        /* \"#utility.yul\":10842:10984   */\n    tag_90:\n        /* \"#utility.yul\":10892:10901   */\n      0x00\n        /* \"#utility.yul\":10925:10978   */\n      tag_218\n        /* \"#utility.yul\":10943:10977   */\n      tag_219\n        /* \"#utility.yul\":10952:10976   */\n      tag_220\n        /* \"#utility.yul\":10970:10975   */\n      dup5\n        /* \"#utility.yul\":10952:10976   */\n      tag_60\n      jump\t// in\n    tag_220:\n        /* \"#utility.yul\":10943:10977   */\n      tag_89\n      jump\t// in\n    tag_219:\n        /* \"#utility.yul\":10925:10978   */\n      tag_60\n      jump\t// in\n    tag_218:\n        /* \"#utility.yul\":10912:10978   */\n      swap1\n      pop\n        /* \"#utility.yul\":10842:10984   */\n      swap2\n      swap1\n      pop\n      jump\t// out\n        /* \"#utility.yul\":10990:11065   */\n    tag_91:\n        /* \"#utility.yul\":11033:11036   */\n      0x00\n        /* \"#utility.yul\":11054:11059   */\n      dup2\n        /* \"#utility.yul\":11047:11059   */\n      swap1\n      pop\n        /* \"#utility.yul\":10990:11065   */\n      swap2\n      swap1\n      pop\n      jump\t// out\n        /* \"#utility.yul\":11071:11340   */\n    tag_92:\n        /* \"#utility.yul\":11181:11220   */\n      tag_223\n        /* \"#utility.yul\":11212:11219   */\n      dup4\n        /* \"#utility.yul\":11181:11220   */\n      tag_90\n      jump\t// in\n    tag_223:\n        /* \"#utility.yul\":11242:11333   */\n      tag_224\n        /* \"#utility.yul\":11291:11332   */\n      tag_225\n        /* \"#utility.yul\":11315:11331   */\n      dup3\n        /* \"#utility.yul\":11291:11332   */\n      tag_91\n      jump\t// in\n    tag_225:\n        /* \"#utility.yul\":11283:11289   */\n      dup5\n        /* \"#utility.yul\":11276:11280   */\n      dup5\n        /* \"#utility.yul\":11270:11281   */\n      sload\n        /* \"#utility.yul\":11242:11333   */\n      tag_88\n      jump\t// in\n    tag_224:\n        /* \"#utility.yul\":11236:11240   */\n      dup3\n        /* \"#utility.yul\":11229:11334   */\n      sstore\n        /* \"#utility.yul\":11147:11340   */\n      pop\n        /* \"#utility.yul\":11071:11340   */\n      pop\n      pop\n      pop\n      jump\t// out\n        /* \"#utility.yul\":11346:11419   */\n    tag_93:\n        /* \"#utility.yul\":11391:11394   */\n      0x00\n        /* \"#utility.yul\":11412:11413   */\n      0x00\n        /* \"#utility.yul\":11405:11413   */\n      swap1\n      pop\n        /* \"#utility.yul\":11346:11419   */\n      swap1\n      jump\t// out\n        /* \"#utility.yul\":11425:11614   */\n    tag_94:\n        /* \"#utility.yul\":11502:11534   */\n      tag_228\n      tag_93\n      jump\t// in\n    tag_228:\n        /* \"#utility.yul\":11543:11608   */\n      tag_229\n        /* \"#utility.yul\":11601:11607   */\n      dup2\n        /* \"#utility.yul\":11593:11599   */\n      dup5\n        /* \"#utility.yul\":11587:11591   */\n      dup5\n        /* \"#utility.yul\":11543:11608   */\n      tag_92\n      jump\t// in\n    tag_229:\n        /* \"#utility.yul\":11478:11614   */\n      pop\n        /* \"#utility.yul\":11425:11614   */\n      pop\n      pop\n      jump\t// out\n        /* \"#utility.yul\":11620:11806   */\n    tag_95:\n        /* \"#utility.yul\":11680:11800   */\n    tag_231:\n        /* \"#utility.yul\":11697:11700   */\n      dup2\n        /* \"#utility.yul\":11690:11695   */\n      dup2\n        /* \"#utility.yul\":11687:11701   */\n      lt\n        /* \"#utility.yul\":11680:11800   */\n      iszero\n      tag_233\n      jumpi\n        /* \"#utility.yul\":11751:11790   */\n      tag_234\n        /* \"#utility.yul\":11788:11789   */\n      0x00\n        /* \"#utility.yul\":11781:11786   */\n      dup3\n        /* \"#utility.yul\":11751:11790   */\n      tag_94\n      jump\t// in\n    tag_234:\n        /* \"#utility.yul\":11724:11725   */\n      0x01\n        /* \"#utility.yul\":11717:11722   */\n      dup2\n        /* \"#utility.yul\":11713:11726   */\n      add\n        /* \"#utility.yul\":11704:11726   */\n      swap1\n      pop\n        /* \"#utility.yul\":11680:11800   */\n      jump(tag_231)\n    tag_233:\n        /* \"#utility.yul\":11620:11806   */\n      pop\n      pop\n      jump\t// out\n        /* \"#utility.yul\":11812:12355   */\n    tag_96:\n        /* \"#utility.yul\":11913:11915   */\n      0x1f\n        /* \"#utility.yul\":11908:11911   */\n      dup3\n        /* \"#utility.yul\":11905:11916   */\n      gt\n        /* \"#utility.yul\":11902:12348   */\n      iszero\n      tag_236\n      jumpi\n        /* \"#utility.yul\":11947:11985   */\n      tag_237\n        /* \"#utility.yul\":11979:11984   */\n      dup2\n        /* \"#utility.yul\":11947:11985   */\n      tag_85\n      jump\t// in\n    tag_237:\n        /* \"#utility.yul\":12031:12060   */\n      tag_238\n        /* \"#utility.yul\":12049:12059   */\n      dup5\n        /* \"#utility.yul\":12031:12060   */\n      tag_86\n      jump\t// in\n    tag_238:\n        /* \"#utility.yul\":12021:12029   */\n      dup2\n        /* \"#utility.yul\":12017:12061   */\n      add\n        /* \"#utility.yul\":12214:12216   */\n      0x20\n        /* \"#utility.yul\":12202:12212   */\n      dup6\n        /* \"#utility.yul\":12199:12217   */\n      lt\n        /* \"#utility.yul\":12196:12245   */\n      iszero\n      tag_239\n      jumpi\n        /* \"#utility.yul\":12235:12243   */\n      dup2\n        /* \"#utility.yul\":12220:12243   */\n      swap1\n      pop\n        /* \"#utility.yul\":12196:12245   */\n    tag_239:\n        /* \"#utility.yul\":12258:12338   */\n      tag_240\n        /* \"#utility.yul\":12314:12336   */\n      tag_241\n        /* \"#utility.yul\":12332:12335   */\n      dup6\n        /* \"#utility.yul\":12314:12336   */\n      tag_86\n      jump\t// in\n    tag_241:\n        /* \"#utility.yul\":12304:12312   */\n      dup4\n        /* \"#utility.yul\":12300:12337   */\n      add\n        /* \"#utility.yul\":12287:12298   */\n      dup3\n        /* \"#utility.yul\":12258:12338   */\n      tag_95\n      jump\t// in\n    tag_240:\n        /* \"#utility.yul\":11917:12348   */\n      pop\n      pop\n        /* \"#utility.yul\":11902:12348   */\n    tag_236:\n        /* \"#utility.yul\":11812:12355   */\n      pop\n      pop\n      pop\n      jump\t// out\n        /* \"#utility.yul\":12361:12478   */\n    tag_97:\n        /* \"#utility.yul\":12415:12423   */\n      0x00\n        /* \"#utility.yul\":12465:12470   */\n      dup3\n        /* \"#utility.yul\":12459:12463   */\n      dup3\n        /* \"#utility.yul\":12455:12471   */\n      shr\n        /* \"#utility.yul\":12434:12471   */\n      swap1\n      pop\n        /* \"#utility.yul\":12361:12478   */\n      swap3\n      swap2\n      pop\n      pop\n      jump\t// out\n        /* \"#utility.yul\":12484:12653   */\n    tag_98:\n        /* \"#utility.yul\":12528:12534   */\n      0x00\n        /* \"#utility.yul\":12561:12612   */\n      tag_244\n        /* \"#utility.yul\":12609:12610   */\n      0x00\n        /* \"#utility.yul\":12605:12611   */\n      not\n        /* \"#utility.yul\":12597:12602   */\n      dup5\n        /* \"#utility.yul\":12594:12595   */\n      0x08\n        /* \"#utility.yul\":12590:12603   */\n      mul\n        /* \"#utility.yul\":12561:12612   */\n      tag_97\n      jump\t// in\n    tag_244:\n        /* \"#utility.yul\":12557:12613   */\n      not\n        /* \"#utility.yul\":12642:12646   */\n      dup1\n        /* \"#utility.yul\":12636:12640   */\n      dup4\n        /* \"#utility.yul\":12632:12647   */\n      and\n        /* \"#utility.yul\":12622:12647   */\n      swap2\n      pop\n        /* \"#utility.yul\":12535:12653   */\n      pop\n        /* \"#utility.yul\":12484:12653   */\n      swap3\n      swap2\n      pop\n      pop\n      jump\t// out\n        /* \"#utility.yul\":12658:12953   */\n    tag_99:\n        /* \"#utility.yul\":12734:12738   */\n      0x00\n        /* \"#utility.yul\":12880:12909   */\n      tag_246\n        /* \"#utility.yul\":12905:12908   */\n      dup4\n        /* \"#utility.yul\":12899:12903   */\n      dup4\n        /* \"#utility.yul\":12880:12909   */\n      tag_98\n      jump\t// in\n    tag_246:\n        /* \"#utility.yul\":12872:12909   */\n      swap2\n      pop\n        /* \"#utility.yul\":12942:12945   */\n      dup3\n        /* \"#utility.yul\":12939:12940   */\n      0x02\n        /* \"#utility.yul\":12935:12946   */\n      mul\n        /* \"#utility.yul\":12929:12933   */\n      dup3\n        /* \"#utility.yul\":12926:12947   */\n      or\n        /* \"#utility.yul\":12918:12947   */\n      swap1\n      pop\n        /* \"#utility.yul\":12658:12953   */\n      swap3\n      swap2\n      pop\n      pop\n      jump\t// out\n        /* \"#utility.yul\":12958:14353   */\n    tag_42:\n        /* \"#utility.yul\":13075:13112   */\n      tag_248\n        /* \"#utility.yul\":13108:13111   */\n      dup3\n        /* \"#utility.yul\":13075:13112   */\n      tag_55\n      jump\t// in\n    tag_248:\n        /* \"#utility.yul\":13177:13195   */\n      0xffffffffffffffff\n        /* \"#utility.yul\":13169:13175   */\n      dup2\n        /* \"#utility.yul\":13166:13196   */\n      gt\n        /* \"#utility.yul\":13163:13219   */\n      iszero\n      tag_249\n      jumpi\n        /* \"#utility.yul\":13199:13217   */\n      tag_250\n      tag_66\n      jump\t// in\n    tag_250:\n        /* \"#utility.yul\":13163:13219   */\n    tag_249:\n        /* \"#utility.yul\":13243:13281   */\n      tag_251\n        /* \"#utility.yul\":13275:13279   */\n      dup3\n        /* \"#utility.yul\":13269:13280   */\n      sload\n        /* \"#utility.yul\":13243:13281   */\n      tag_29\n      jump\t// in\n    tag_251:\n        /* \"#utility.yul\":13328:13395   */\n      tag_252\n        /* \"#utility.yul\":13388:13394   */\n      dup3\n        /* \"#utility.yul\":13380:13386   */\n      dup3\n        /* \"#utility.yul\":13374:13378   */\n      dup6\n        /* \"#utility.yul\":13328:13395   */\n      tag_96\n      jump\t// in\n    tag_252:\n        /* \"#utility.yul\":13422:13423   */\n      0x00\n        /* \"#utility.yul\":13446:13450   */\n      0x20\n        /* \"#utility.yul\":13433:13450   */\n      swap1\n      pop\n        /* \"#utility.yul\":13478:13480   */\n      0x1f\n        /* \"#utility.yul\":13470:13476   */\n      dup4\n        /* \"#utility.yul\":13467:13481   */\n      gt\n        /* \"#utility.yul\":13495:13496   */\n      0x01\n        /* \"#utility.yul\":13490:14108   */\n      dup2\n      eq\n      tag_254\n      jumpi\n        /* \"#utility.yul\":14152:14153   */\n      0x00\n        /* \"#utility.yul\":14169:14175   */\n      dup5\n        /* \"#utility.yul\":14166:14243   */\n      iszero\n      tag_255\n      jumpi\n        /* \"#utility.yul\":14218:14227   */\n      dup3\n        /* \"#utility.yul\":14213:14216   */\n      dup8\n        /* \"#utility.yul\":14209:14228   */\n      add\n        /* \"#utility.yul\":14203:14229   */\n      mload\n        /* \"#utility.yul\":14194:14229   */\n      swap1\n      pop\n        /* \"#utility.yul\":14166:14243   */\n    tag_255:\n        /* \"#utility.yul\":14269:14336   */\n      tag_256\n        /* \"#utility.yul\":14329:14335   */\n      dup6\n        /* \"#utility.yul\":14322:14327   */\n      dup3\n        /* \"#utility.yul\":14269:14336   */\n      tag_99\n      jump\t// in\n    tag_256:\n        /* \"#utility.yul\":14263:14267   */\n      dup7\n        /* \"#utility.yul\":14256:14337   */\n      sstore\n        /* \"#utility.yul\":14125:14347   */\n      pop\n        /* \"#utility.yul\":13460:14347   */\n      jump(tag_253)\n        /* \"#utility.yul\":13490:14108   */\n    tag_254:\n        /* \"#utility.yul\":13542:13546   */\n      0x1f\n        /* \"#utility.yul\":13538:13547   */\n      not\n        /* \"#utility.yul\":13530:13536   */\n      dup5\n        /* \"#utility.yul\":13526:13548   */\n      and\n        /* \"#utility.yul\":13576:13613   */\n      tag_257\n        /* \"#utility.yul\":13608:13612   */\n      dup7\n        /* \"#utility.yul\":13576:13613   */\n      tag_85\n      jump\t// in\n    tag_257:\n        /* \"#utility.yul\":13635:13636   */\n      0x00\n        /* \"#utility.yul\":13649:13857   */\n    tag_258:\n        /* \"#utility.yul\":13663:13670   */\n      dup3\n        /* \"#utility.yul\":13660:13661   */\n      dup2\n        /* \"#utility.yul\":13657:13671   */\n      lt\n        /* \"#utility.yul\":13649:13857   */\n      iszero\n      tag_260\n      jumpi\n        /* \"#utility.yul\":13742:13751   */\n      dup5\n        /* \"#utility.yul\":13737:13740   */\n      dup10\n        /* \"#utility.yul\":13733:13752   */\n      add\n        /* \"#utility.yul\":13727:13753   */\n      mload\n        /* \"#utility.yul\":13719:13725   */\n      dup3\n        /* \"#utility.yul\":13712:13754   */\n      sstore\n        /* \"#utility.yul\":13793:13794   */\n      0x01\n        /* \"#utility.yul\":13785:13791   */\n      dup3\n        /* \"#utility.yul\":13781:13795   */\n      add\n        /* \"#utility.yul\":13771:13795   */\n      swap2\n      pop\n        /* \"#utility.yul\":13840:13842   */\n      0x20\n        /* \"#utility.yul\":13829:13838   */\n      dup6\n        /* \"#utility.yul\":13825:13843   */\n      add\n        /* \"#utility.yul\":13812:13843   */\n      swap5\n      pop\n        /* \"#utility.yul\":13686:13690   */\n      0x20\n        /* \"#utility.yul\":13683:13684   */\n      dup2\n        /* \"#utility.yul\":13679:13691   */\n      add\n        /* \"#utility.yul\":13674:13691   */\n      swap1\n      pop\n        /* \"#utility.yul\":13649:13857   */\n      jump(tag_258)\n    tag_260:\n        /* \"#utility.yul\":13885:13891   */\n      dup7\n        /* \"#utility.yul\":13876:13883   */\n      dup4\n        /* \"#utility.yul\":13873:13892   */\n      lt\n        /* \"#utility.yul\":13870:14049   */\n      iszero\n      tag_261\n      jumpi\n        /* \"#utility.yul\":13943:13952   */\n      dup5\n        /* \"#utility.yul\":13938:13941   */\n      dup10\n        /* \"#utility.yul\":13934:13953   */\n      add\n        /* \"#utility.yul\":13928:13954   */\n      mload\n        /* \"#utility.yul\":13986:14034   */\n      tag_262\n        /* \"#utility.yul\":14028:14032   */\n      0x1f\n        /* \"#utility.yul\":14020:14026   */\n      dup10\n        /* \"#utility.yul\":14016:14033   */\n      and\n        /* \"#utility.yul\":14005:14014   */\n      dup3\n        /* \"#utility.yul\":13986:14034   */\n      tag_98\n      jump\t// in\n    tag_262:\n        /* \"#utility.yul\":13978:13984   */\n      dup4\n        /* \"#utility.yul\":13971:14035   */\n      sstore\n        /* \"#utility.yul\":13893:14049   */\n      pop\n        /* \"#utility.yul\":13870:14049   */\n    tag_261:\n        /* \"#utility.yul\":14095:14096   */\n      0x01\n        /* \"#utility.yul\":14091:14092   */\n      0x02\n        /* \"#utility.yul\":14083:14089   */\n      dup9\n        /* \"#utility.yul\":14079:14093   */\n      mul\n        /* \"#utility.yul\":14075:14097   */\n      add\n        /* \"#utility.yul\":14069:14073   */\n      dup9\n        /* \"#utility.yul\":14062:14098   */\n      sstore\n        /* \"#utility.yul\":13497:14108   */\n      pop\n      pop\n      pop\n        /* \"#utility.yul\":13460:14347   */\n    tag_253:\n      pop\n        /* \"#utility.yul\":13050:14353   */\n      pop\n      pop\n      pop\n        /* \"#utility.yul\":12958:14353   */\n      pop\n      pop\n      jump\t// out\n        /* \"#utility.yul\":14359:14672   */\n    tag_44:\n        /* \"#utility.yul\":14472:14476   */\n      0x00\n        /* \"#utility.yul\":14510:14512   */\n      0x20\n        /* \"#utility.yul\":14499:14508   */\n      dup3\n        /* \"#utility.yul\":14495:14513   */\n      add\n        /* \"#utility.yul\":14487:14513   */\n      swap1\n      pop\n        /* \"#utility.yul\":14559:14568   */\n      dup2\n        /* \"#utility.yul\":14553:14557   */\n      dup2\n        /* \"#utility.yul\":14549:14569   */\n      sub\n        /* \"#utility.yul\":14545:14546   */\n      0x00\n        /* \"#utility.yul\":14534:14543   */\n      dup4\n        /* \"#utility.yul\":14530:14547   */\n      add\n        /* \"#utility.yul\":14523:14570   */\n      mstore\n        /* \"#utility.yul\":14587:14665   */\n      tag_264\n        /* \"#utility.yul\":14660:14664   */\n      dup2\n        /* \"#utility.yul\":14651:14657   */\n      dup5\n        /* \"#utility.yul\":14587:14665   */\n      tag_59\n      jump\t// in\n    tag_264:\n        /* \"#utility.yul\":14579:14665   */\n      swap1\n      pop\n        /* \"#utility.yul\":14359:14672   */\n      swap3\n      swap2\n      pop\n      pop\n      jump\t// out\n\n    auxdata: 0xa26469706673582212204c89f5da9de397a0c2f5a7b7844d322a77ca5ed8153f0d2f3816215c82018a1664736f6c634300081e0033\n}\n",
				"bytecode": {
					"linkReferences": {},
					"object": "6080604052348015600e575f5ffd5b50335f5f6101000a81548173ffffffffffffffffffffffffffffffffffffffff021916908373ffffffffffffffffffffffffffffffffffffffff160217905550610ba78061005b5f395ff3fe608060405234801561000f575f5ffd5b506004361061004a575f3560e01c80637ef502981461004e5780638da5cb5b1461008057806390c7c49c1461009e578063fe35089f146100ce575b5f5ffd5b61006860048036038101906100639190610425565b6100fe565b60405161007793929190610517565b60405180910390f35b6100886101c9565b6040516100959190610553565b60405180910390f35b6100b860048036038101906100b391906106c2565b6101ed565b6040516100c5919061072b565b60405180910390f35b6100e860048036038101906100e39190610425565b6103bb565b6040516100f5919061075e565b60405180910390f35b6002602052805f5260405f205f91509050805f015f9054906101000a900473ffffffffffffffffffffffffffffffffffffffff1690806001018054610142906107a4565b80601f016020809104026020016040519081016040528092919081815260200182805461016e906107a4565b80156101b95780601f10610190576101008083540402835291602001916101b9565b820191905f5260205f20905b81548152906001019060200180831161019c57829003601f168201915b5050505050908060020154905083565b5f5f9054906101000a900473ffffffffffffffffffffffffffffffffffffffff1681565b5f5f5f9054906101000a900473ffffffffffffffffffffffffffffffffffffffff1673ffffffffffffffffffffffffffffffffffffffff163373ffffffffffffffffffffffffffffffffffffffff161461027c576040517f08c379a00000000000000000000000000000000000000000000000000000000081526004016102739061081e565b60405180910390fd5b5f83836040516020016102909291906108bb565b6040516020818303038152906040528051906020012090506001805f8381526020019081526020015f205f6101000a81548160ff02191690831515021790555060405180606001604052803373ffffffffffffffffffffffffffffffffffffffff1681526020018481526020014281525060025f8381526020019081526020015f205f820151815f015f6101000a81548173ffffffffffffffffffffffffffffffffffffffff021916908373ffffffffffffffffffffffffffffffffffffffff160217905550602082015181600101908161036b9190610a82565b5060408201518160020155905050807fa64bda6b3054e61306e1194a1ab64bc61bcf8059d7ecbaeaa6fcd1f344ee4104846040516103a99190610b51565b60405180910390a28091505092915050565b5f60015f8381526020019081526020015f205f9054906101000a900460ff169050919050565b5f604051905090565b5f5ffd5b5f5ffd5b5f819050919050565b610404816103f2565b811461040e575f5ffd5b50565b5f8135905061041f816103fb565b92915050565b5f6020828403121561043a576104396103ea565b5b5f61044784828501610411565b91505092915050565b5f73ffffffffffffffffffffffffffffffffffffffff82169050919050565b5f61047982610450565b9050919050565b6104898161046f565b82525050565b5f81519050919050565b5f82825260208201905092915050565b8281835e5f83830152505050565b5f601f19601f8301169050919050565b5f6104d18261048f565b6104db8185610499565b93506104eb8185602086016104a9565b6104f4816104b7565b840191505092915050565b5f819050919050565b610511816104ff565b82525050565b5f60608201905061052a5f830186610480565b818103602083015261053c81856104c7565b905061054b6040830184610508565b949350505050565b5f6020820190506105665f830184610480565b92915050565b6105758161046f565b811461057f575f5ffd5b50565b5f813590506105908161056c565b92915050565b5f5ffd5b5f5ffd5b7f4e487b71000000000000000000000000000000000000000000000000000000005f52604160045260245ffd5b6105d4826104b7565b810181811067ffffffffffffffff821117156105f3576105f261059e565b5b80604052505050565b5f6106056103e1565b905061061182826105cb565b919050565b5f67ffffffffffffffff8211156106305761062f61059e565b5b610639826104b7565b9050602081019050919050565b828183375f83830152505050565b5f61066661066184610616565b6105fc565b9050828152602081018484840111156106825761068161059a565b5b61068d848285610646565b509392505050565b5f82601f8301126106a9576106a8610596565b5b81356106b9848260208601610654565b91505092915050565b5f5f604083850312156106d8576106d76103ea565b5b5f6106e585828601610582565b925050602083013567ffffffffffffffff811115610706576107056103ee565b5b61071285828601610695565b9150509250929050565b610725816103f2565b82525050565b5f60208201905061073e5f83018461071c565b92915050565b5f8115159050919050565b61075881610744565b82525050565b5f6020820190506107715f83018461074f565b92915050565b7f4e487b71000000000000000000000000000000000000000000000000000000005f52602260045260245ffd5b5f60028204905060018216806107bb57607f821691505b6020821081036107ce576107cd610777565b5b50919050565b7f4e6f7420617574686f72697a65640000000000000000000000000000000000005f82015250565b5f610808600e83610499565b9150610813826107d4565b602082019050919050565b5f6020820190508181035f830152610835816107fc565b9050919050565b5f8160601b9050919050565b5f6108528261083c565b9050919050565b5f61086382610848565b9050919050565b61087b6108768261046f565b610859565b82525050565b5f81905092915050565b5f6108958261048f565b61089f8185610881565b93506108af8185602086016104a9565b80840191505092915050565b5f6108c6828561086a565b6014820191506108d6828461088b565b91508190509392505050565b5f819050815f5260205f209050919050565b5f6020601f8301049050919050565b5f82821b905092915050565b5f6008830261093e7fffffffffffffffffffffffffffffffffffffffffffffffffffffffffffffffff82610903565b6109488683610903565b95508019841693508086168417925050509392505050565b5f819050919050565b5f61098361097e610979846104ff565b610960565b6104ff565b9050919050565b5f819050919050565b61099c83610969565b6109b06109a88261098a565b84845461090f565b825550505050565b5f5f905090565b6109c76109b8565b6109d2818484610993565b505050565b5b818110156109f5576109ea5f826109bf565b6001810190506109d8565b5050565b601f821115610a3a57610a0b816108e2565b610a14846108f4565b81016020851015610a23578190505b610a37610a2f856108f4565b8301826109d7565b50505b505050565b5f82821c905092915050565b5f610a5a5f1984600802610a3f565b1980831691505092915050565b5f610a728383610a4b565b9150826002028217905092915050565b610a8b8261048f565b67ffffffffffffffff811115610aa457610aa361059e565b5b610aae82546107a4565b610ab98282856109f9565b5f60209050601f831160018114610aea575f8415610ad8578287015190505b610ae28582610a67565b865550610b49565b601f198416610af8866108e2565b5f5b82811015610b1f57848901518255600182019150602085019450602081019050610afa565b86831015610b3c5784890151610b38601f891682610a4b565b8355505b6001600288020188555050505b505050505050565b5f6020820190508181035f830152610b6981846104c7565b90509291505056fea26469706673582212204c89f5da9de397a0c2f5a7b7844d322a77ca5ed8153f0d2f3816215c82018a1664736f6c634300081e0033",
					"opcodes": "PUSH1 0x80 PUSH1 0x40 MSTORE CALLVALUE DUP1 ISZERO PUSH1 0xE JUMPI PUSH0 PUSH0 REVERT JUMPDEST POP CALLER PUSH0 PUSH0 PUSH2 0x100 EXP DUP2 SLOAD DUP2 PUSH20 0xFFFFFFFFFFFFFFFFFFFFFFFFFFFFFFFFFFFFFFFF MUL NOT AND SWAP1 DUP4 PUSH20 0xFFFFFFFFFFFFFFFFFFFFFFFFFFFFFFFFFFFFFFFF AND MUL OR SWAP1 SSTORE POP PUSH2 0xBA7 DUP1 PUSH2 0x5B PUSH0 CODECOPY PUSH0 RETURN INVALID PUSH1 0x80 PUSH1 0x40 MSTORE CALLVALUE DUP1 ISZERO PUSH2 0xF JUMPI PUSH0 PUSH0 REVERT JUMPDEST POP PUSH1 0x4 CALLDATASIZE LT PUSH2 0x4A JUMPI PUSH0 CALLDATALOAD PUSH1 0xE0 SHR DUP1 PUSH4 0x7EF50298 EQ PUSH2 0x4E JUMPI DUP1 PUSH4 0x8DA5CB5B EQ PUSH2 0x80 JUMPI DUP1 PUSH4 0x90C7C49C EQ PUSH2 0x9E JUMPI DUP1 PUSH4 0xFE35089F EQ PUSH2 0xCE JUMPI JUMPDEST PUSH0 PUSH0 REVERT JUMPDEST PUSH2 0x68 PUSH1 0x4 DUP1 CALLDATASIZE SUB DUP2 ADD SWAP1 PUSH2 0x63 SWAP2 SWAP1 PUSH2 0x425 JUMP JUMPDEST PUSH2 0xFE JUMP JUMPDEST PUSH1 0x40 MLOAD PUSH2 0x77 SWAP4 SWAP3 SWAP2 SWAP1 PUSH2 0x517 JUMP JUMPDEST PUSH1 0x40 MLOAD DUP1 SWAP2 SUB SWAP1 RETURN JUMPDEST PUSH2 0x88 PUSH2 0x1C9 JUMP JUMPDEST PUSH1 0x40 MLOAD PUSH2 0x95 SWAP2 SWAP1 PUSH2 0x553 JUMP JUMPDEST PUSH1 0x40 MLOAD DUP1 SWAP2 SUB SWAP1 RETURN JUMPDEST PUSH2 0xB8 PUSH1 0x4 DUP1 CALLDATASIZE SUB DUP2 ADD SWAP1 PUSH2 0xB3 SWAP2 SWAP1 PUSH2 0x6C2 JUMP JUMPDEST PUSH2 0x1ED JUMP JUMPDEST PUSH1 0x40 MLOAD PUSH2 0xC5 SWAP2 SWAP1 PUSH2 0x72B JUMP JUMPDEST PUSH1 0x40 MLOAD DUP1 SWAP2 SUB SWAP1 RETURN JUMPDEST PUSH2 0xE8 PUSH1 0x4 DUP1 CALLDATASIZE SUB DUP2 ADD SWAP1 PUSH2 0xE3 SWAP2 SWAP1 PUSH2 0x425 JUMP JUMPDEST PUSH2 0x3BB JUMP JUMPDEST PUSH1 0x40 MLOAD PUSH2 0xF5 SWAP2 SWAP1 PUSH2 0x75E JUMP JUMPDEST PUSH1 0x40 MLOAD DUP1 SWAP2 SUB SWAP1 RETURN JUMPDEST PUSH1 0x2 PUSH1 0x20 MSTORE DUP1 PUSH0 MSTORE PUSH1 0x40 PUSH0 KECCAK256 PUSH0 SWAP2 POP SWAP1 POP DUP1 PUSH0 ADD PUSH0 SWAP1 SLOAD SWAP1 PUSH2 0x100 EXP SWAP1 DIV PUSH20 0xFFFFFFFFFFFFFFFFFFFFFFFFFFFFFFFFFFFFFFFF AND SWAP1 DUP1 PUSH1 0x1 ADD DUP1 SLOAD PUSH2 0x142 SWAP1 PUSH2 0x7A4 JUMP JUMPDEST DUP1 PUSH1 0x1F ADD PUSH1 0x20 DUP1 SWAP2 DIV MUL PUSH1 0x20 ADD PUSH1 0x40 MLOAD SWAP1 DUP2 ADD PUSH1 0x40 MSTORE DUP1 SWAP3 SWAP2 SWAP1 DUP2 DUP2 MSTORE PUSH1 0x20 ADD DUP3 DUP1 SLOAD PUSH2 0x16E SWAP1 PUSH2 0x7A4 JUMP JUMPDEST DUP1 ISZERO PUSH2 0x1B9 JUMPI DUP1 PUSH1 0x1F LT PUSH2 0x190 JUMPI PUSH2 0x100 DUP1 DUP4 SLOAD DIV MUL DUP4 MSTORE SWAP2 PUSH1 0x20 ADD SWAP2 PUSH2 0x1B9 JUMP JUMPDEST DUP3 ADD SWAP2 SWAP1 PUSH0 MSTORE PUSH1 0x20 PUSH0 KECCAK256 SWAP1 JUMPDEST DUP2 SLOAD DUP2 MSTORE SWAP1 PUSH1 0x1 ADD SWAP1 PUSH1 0x20 ADD DUP1 DUP4 GT PUSH2 0x19C JUMPI DUP3 SWAP1 SUB PUSH1 0x1F AND DUP3 ADD SWAP2 JUMPDEST POP POP POP POP POP SWAP1 DUP1 PUSH1 0x2 ADD SLOAD SWAP1 POP DUP4 JUMP JUMPDEST PUSH0 PUSH0 SWAP1 SLOAD SWAP1 PUSH2 0x100 EXP SWAP1 DIV PUSH20 0xFFFFFFFFFFFFFFFFFFFFFFFFFFFFFFFFFFFFFFFF AND DUP2 JUMP JUMPDEST PUSH0 PUSH0 PUSH0 SWAP1 SLOAD SWAP1 PUSH2 0x100 EXP SWAP1 DIV PUSH20 0xFFFFFFFFFFFFFFFFFFFFFFFFFFFFFFFFFFFFFFFF AND PUSH20 0xFFFFFFFFFFFFFFFFFFFFFFFFFFFFFFFFFFFFFFFF AND CALLER PUSH20 0xFFFFFFFFFFFFFFFFFFFFFFFFFFFFFFFFFFFFFFFF AND EQ PUSH2 0x27C JUMPI PUSH1 0x40 MLOAD PUSH32 0x8C379A000000000000000000000000000000000000000000000000000000000 DUP2 MSTORE PUSH1 0x4 ADD PUSH2 0x273 SWAP1 PUSH2 0x81E JUMP JUMPDEST PUSH1 0x40 MLOAD DUP1 SWAP2 SUB SWAP1 REVERT JUMPDEST PUSH0 DUP4 DUP4 PUSH1 0x40 MLOAD PUSH1 0x20 ADD PUSH2 0x290 SWAP3 SWAP2 SWAP1 PUSH2 0x8BB JUMP JUMPDEST PUSH1 0x40 MLOAD PUSH1 0x20 DUP2 DUP4 SUB SUB DUP2 MSTORE SWAP1 PUSH1 0x40 MSTORE DUP1 MLOAD SWAP1 PUSH1 0x20 ADD KECCAK256 SWAP1 POP PUSH1 0x1 DUP1 PUSH0 DUP4 DUP2 MSTORE PUSH1 0x20 ADD SWAP1 DUP2 MSTORE PUSH1 0x20 ADD PUSH0 KECCAK256 PUSH0 PUSH2 0x100 EXP DUP2 SLOAD DUP2 PUSH1 0xFF MUL NOT AND SWAP1 DUP4 ISZERO ISZERO MUL OR SWAP1 SSTORE POP PUSH1 0x40 MLOAD DUP1 PUSH1 0x60 ADD PUSH1 0x40 MSTORE DUP1 CALLER PUSH20 0xFFFFFFFFFFFFFFFFFFFFFFFFFFFFFFFFFFFFFFFF AND DUP2 MSTORE PUSH1 0x20 ADD DUP5 DUP2 MSTORE PUSH1 0x20 ADD TIMESTAMP DUP2 MSTORE POP PUSH1 0x2 PUSH0 DUP4 DUP2 MSTORE PUSH1 0x20 ADD SWAP1 DUP2 MSTORE PUSH1 0x20 ADD PUSH0 KECCAK256 PUSH0 DUP3 ADD MLOAD DUP2 PUSH0 ADD PUSH0 PUSH2 0x100 EXP DUP2 SLOAD DUP2 PUSH20 0xFFFFFFFFFFFFFFFFFFFFFFFFFFFFFFFFFFFFFFFF MUL NOT AND SWAP1 DUP4 PUSH20 0xFFFFFFFFFFFFFFFFFFFFFFFFFFFFFFFFFFFFFFFF AND MUL OR SWAP1 SSTORE POP PUSH1 0x20 DUP3 ADD MLOAD DUP2 PUSH1 0x1 ADD SWAP1 DUP2 PUSH2 0x36B SWAP2 SWAP1 PUSH2 0xA82 JUMP JUMPDEST POP PUSH1 0x40 DUP3 ADD MLOAD DUP2 PUSH1 0x2 ADD SSTORE SWAP1 POP POP DUP1 PUSH32 0xA64BDA6B3054E61306E1194A1AB64BC61BCF8059D7ECBAEAA6FCD1F344EE4104 DUP5 PUSH1 0x40 MLOAD PUSH2 0x3A9 SWAP2 SWAP1 PUSH2 0xB51 JUMP JUMPDEST PUSH1 0x40 MLOAD DUP1 SWAP2 SUB SWAP1 LOG2 DUP1 SWAP2 POP POP SWAP3 SWAP2 POP POP JUMP JUMPDEST PUSH0 PUSH1 0x1 PUSH0 DUP4 DUP2 MSTORE PUSH1 0x20 ADD SWAP1 DUP2 MSTORE PUSH1 0x20 ADD PUSH0 KECCAK256 PUSH0 SWAP1 SLOAD SWAP1 PUSH2 0x100 EXP SWAP1 DIV PUSH1 0xFF AND SWAP1 POP SWAP2 SWAP1 POP JUMP JUMPDEST PUSH0 PUSH1 0x40 MLOAD SWAP1 POP SWAP1 JUMP JUMPDEST PUSH0 PUSH0 REVERT JUMPDEST PUSH0 PUSH0 REVERT JUMPDEST PUSH0 DUP2 SWAP1 POP SWAP2 SWAP1 POP JUMP JUMPDEST PUSH2 0x404 DUP2 PUSH2 0x3F2 JUMP JUMPDEST DUP2 EQ PUSH2 0x40E JUMPI PUSH0 PUSH0 REVERT JUMPDEST POP JUMP JUMPDEST PUSH0 DUP2 CALLDATALOAD SWAP1 POP PUSH2 0x41F DUP2 PUSH2 0x3FB JUMP JUMPDEST SWAP3 SWAP2 POP POP JUMP JUMPDEST PUSH0 PUSH1 0x20 DUP3 DUP5 SUB SLT ISZERO PUSH2 0x43A JUMPI PUSH2 0x439 PUSH2 0x3EA JUMP JUMPDEST JUMPDEST PUSH0 PUSH2 0x447 DUP5 DUP3 DUP6 ADD PUSH2 0x411 JUMP JUMPDEST SWAP2 POP POP SWAP3 SWAP2 POP POP JUMP JUMPDEST PUSH0 PUSH20 0xFFFFFFFFFFFFFFFFFFFFFFFFFFFFFFFFFFFFFFFF DUP3 AND SWAP1 POP SWAP2 SWAP1 POP JUMP JUMPDEST PUSH0 PUSH2 0x479 DUP3 PUSH2 0x450 JUMP JUMPDEST SWAP1 POP SWAP2 SWAP1 POP JUMP JUMPDEST PUSH2 0x489 DUP2 PUSH2 0x46F JUMP JUMPDEST DUP3 MSTORE POP POP JUMP JUMPDEST PUSH0 DUP2 MLOAD SWAP1 POP SWAP2 SWAP1 POP JUMP JUMPDEST PUSH0 DUP3 DUP3 MSTORE PUSH1 0x20 DUP3 ADD SWAP1 POP SWAP3 SWAP2 POP POP JUMP JUMPDEST DUP3 DUP2 DUP4 MCOPY PUSH0 DUP4 DUP4 ADD MSTORE POP POP POP JUMP JUMPDEST PUSH0 PUSH1 0x1F NOT PUSH1 0x1F DUP4 ADD AND SWAP1 POP SWAP2 SWAP1 POP JUMP JUMPDEST PUSH0 PUSH2 0x4D1 DUP3 PUSH2 0x48F JUMP JUMPDEST PUSH2 0x4DB DUP2 DUP6 PUSH2 0x499 JUMP JUMPDEST SWAP4 POP PUSH2 0x4EB DUP2 DUP6 PUSH1 0x20 DUP7 ADD PUSH2 0x4A9 JUMP JUMPDEST PUSH2 0x4F4 DUP2 PUSH2 0x4B7 JUMP JUMPDEST DUP5 ADD SWAP2 POP POP SWAP3 SWAP2 POP POP JUMP JUMPDEST PUSH0 DUP2 SWAP1 POP SWAP2 SWAP1 POP JUMP JUMPDEST PUSH2 0x511 DUP2 PUSH2 0x4FF JUMP JUMPDEST DUP3 MSTORE POP POP JUMP JUMPDEST PUSH0 PUSH1 0x60 DUP3 ADD SWAP1 POP PUSH2 0x52A PUSH0 DUP4 ADD DUP7 PUSH2 0x480 JUMP JUMPDEST DUP2 DUP2 SUB PUSH1 0x20 DUP4 ADD MSTORE PUSH2 0x53C DUP2 DUP6 PUSH2 0x4C7 JUMP JUMPDEST SWAP1 POP PUSH2 0x54B PUSH1 0x40 DUP4 ADD DUP5 PUSH2 0x508 JUMP JUMPDEST SWAP5 SWAP4 POP POP POP POP JUMP JUMPDEST PUSH0 PUSH1 0x20 DUP3 ADD SWAP1 POP PUSH2 0x566 PUSH0 DUP4 ADD DUP5 PUSH2 0x480 JUMP JUMPDEST SWAP3 SWAP2 POP POP JUMP JUMPDEST PUSH2 0x575 DUP2 PUSH2 0x46F JUMP JUMPDEST DUP2 EQ PUSH2 0x57F JUMPI PUSH0 PUSH0 REVERT JUMPDEST POP JUMP JUMPDEST PUSH0 DUP2 CALLDATALOAD SWAP1 POP PUSH2 0x590 DUP2 PUSH2 0x56C JUMP JUMPDEST SWAP3 SWAP2 POP POP JUMP JUMPDEST PUSH0 PUSH0 REVERT JUMPDEST PUSH0 PUSH0 REVERT JUMPDEST PUSH32 0x4E487B7100000000000000000000000000000000000000000000000000000000 PUSH0 MSTORE PUSH1 0x41 PUSH1 0x4 MSTORE PUSH1 0x24 PUSH0 REVERT JUMPDEST PUSH2 0x5D4 DUP3 PUSH2 0x4B7 JUMP JUMPDEST DUP2 ADD DUP2 DUP2 LT PUSH8 0xFFFFFFFFFFFFFFFF DUP3 GT OR ISZERO PUSH2 0x5F3 JUMPI PUSH2 0x5F2 PUSH2 0x59E JUMP JUMPDEST JUMPDEST DUP1 PUSH1 0x40 MSTORE POP POP POP JUMP JUMPDEST PUSH0 PUSH2 0x605 PUSH2 0x3E1 JUMP JUMPDEST SWAP1 POP PUSH2 0x611 DUP3 DUP3 PUSH2 0x5CB JUMP JUMPDEST SWAP2 SWAP1 POP JUMP JUMPDEST PUSH0 PUSH8 0xFFFFFFFFFFFFFFFF DUP3 GT ISZERO PUSH2 0x630 JUMPI PUSH2 0x62F PUSH2 0x59E JUMP JUMPDEST JUMPDEST PUSH2 0x639 DUP3 PUSH2 0x4B7 JUMP JUMPDEST SWAP1 POP PUSH1 0x20 DUP2 ADD SWAP1 POP SWAP2 SWAP1 POP JUMP JUMPDEST DUP3 DUP2 DUP4 CALLDATACOPY PUSH0 DUP4 DUP4 ADD MSTORE POP POP POP JUMP JUMPDEST PUSH0 PUSH2 0x666 PUSH2 0x661 DUP5 PUSH2 0x616 JUMP JUMPDEST PUSH2 0x5FC JUMP JUMPDEST SWAP1 POP DUP3 DUP2 MSTORE PUSH1 0x20 DUP2 ADD DUP5 DUP5 DUP5 ADD GT ISZERO PUSH2 0x682 JUMPI PUSH2 0x681 PUSH2 0x59A JUMP JUMPDEST JUMPDEST PUSH2 0x68D DUP5 DUP3 DUP6 PUSH2 0x646 JUMP JUMPDEST POP SWAP4 SWAP3 POP POP POP JUMP JUMPDEST PUSH0 DUP3 PUSH1 0x1F DUP4 ADD SLT PUSH2 0x6A9 JUMPI PUSH2 0x6A8 PUSH2 0x596 JUMP JUMPDEST JUMPDEST DUP2 CALLDATALOAD PUSH2 0x6B9 DUP5 DUP3 PUSH1 0x20 DUP7 ADD PUSH2 0x654 JUMP JUMPDEST SWAP2 POP POP SWAP3 SWAP2 POP POP JUMP JUMPDEST PUSH0 PUSH0 PUSH1 0x40 DUP4 DUP6 SUB SLT ISZERO PUSH2 0x6D8 JUMPI PUSH2 0x6D7 PUSH2 0x3EA JUMP JUMPDEST JUMPDEST PUSH0 PUSH2 0x6E5 DUP6 DUP3 DUP7 ADD PUSH2 0x582 JUMP JUMPDEST SWAP3 POP POP PUSH1 0x20 DUP4 ADD CALLDATALOAD PUSH8 0xFFFFFFFFFFFFFFFF DUP2 GT ISZERO PUSH2 0x706 JUMPI PUSH2 0x705 PUSH2 0x3EE JUMP JUMPDEST JUMPDEST PUSH2 0x712 DUP6 DUP3 DUP7 ADD PUSH2 0x695 JUMP JUMPDEST SWAP2 POP POP SWAP3 POP SWAP3 SWAP1 POP JUMP JUMPDEST PUSH2 0x725 DUP2 PUSH2 0x3F2 JUMP JUMPDEST DUP3 MSTORE POP POP JUMP JUMPDEST PUSH0 PUSH1 0x20 DUP3 ADD SWAP1 POP PUSH2 0x73E PUSH0 DUP4 ADD DUP5 PUSH2 0x71C JUMP JUMPDEST SWAP3 SWAP2 POP POP JUMP JUMPDEST PUSH0 DUP2 ISZERO ISZERO SWAP1 POP SWAP2 SWAP1 POP JUMP JUMPDEST PUSH2 0x758 DUP2 PUSH2 0x744 JUMP JUMPDEST DUP3 MSTORE POP POP JUMP JUMPDEST PUSH0 PUSH1 0x20 DUP3 ADD SWAP1 POP PUSH2 0x771 PUSH0 DUP4 ADD DUP5 PUSH2 0x74F JUMP JUMPDEST SWAP3 SWAP2 POP POP JUMP JUMPDEST PUSH32 0x4E487B7100000000000000000000000000000000000000000000000000000000 PUSH0 MSTORE PUSH1 0x22 PUSH1 0x4 MSTORE PUSH1 0x24 PUSH0 REVERT JUMPDEST PUSH0 PUSH1 0x2 DUP3 DIV SWAP1 POP PUSH1 0x1 DUP3 AND DUP1 PUSH2 0x7BB JUMPI PUSH1 0x7F DUP3 AND SWAP2 POP JUMPDEST PUSH1 0x20 DUP3 LT DUP2 SUB PUSH2 0x7CE JUMPI PUSH2 0x7CD PUSH2 0x777 JUMP JUMPDEST JUMPDEST POP SWAP2 SWAP1 POP JUMP JUMPDEST PUSH32 0x4E6F7420617574686F72697A6564000000000000000000000000000000000000 PUSH0 DUP3 ADD MSTORE POP JUMP JUMPDEST PUSH0 PUSH2 0x808 PUSH1 0xE DUP4 PUSH2 0x499 JUMP JUMPDEST SWAP2 POP PUSH2 0x813 DUP3 PUSH2 0x7D4 JUMP JUMPDEST PUSH1 0x20 DUP3 ADD SWAP1 POP SWAP2 SWAP1 POP JUMP JUMPDEST PUSH0 PUSH1 0x20 DUP3 ADD SWAP1 POP DUP2 DUP2 SUB PUSH0 DUP4 ADD MSTORE PUSH2 0x835 DUP2 PUSH2 0x7FC JUMP JUMPDEST SWAP1 POP SWAP2 SWAP1 POP JUMP JUMPDEST PUSH0 DUP2 PUSH1 0x60 SHL SWAP1 POP SWAP2 SWAP1 POP JUMP JUMPDEST PUSH0 PUSH2 0x852 DUP3 PUSH2 0x83C JUMP JUMPDEST SWAP1 POP SWAP2 SWAP1 POP JUMP JUMPDEST PUSH0 PUSH2 0x863 DUP3 PUSH2 0x848 JUMP JUMPDEST SWAP1 POP SWAP2 SWAP1 POP JUMP JUMPDEST PUSH2 0x87B PUSH2 0x876 DUP3 PUSH2 0x46F JUMP JUMPDEST PUSH2 0x859 JUMP JUMPDEST DUP3 MSTORE POP POP JUMP JUMPDEST PUSH0 DUP2 SWAP1 POP SWAP3 SWAP2 POP POP JUMP JUMPDEST PUSH0 PUSH2 0x895 DUP3 PUSH2 0x48F JUMP JUMPDEST PUSH2 0x89F DUP2 DUP6 PUSH2 0x881 JUMP JUMPDEST SWAP4 POP PUSH2 0x8AF DUP2 DUP6 PUSH1 0x20 DUP7 ADD PUSH2 0x4A9 JUMP JUMPDEST DUP1 DUP5 ADD SWAP2 POP POP SWAP3 SWAP2 POP POP JUMP JUMPDEST PUSH0 PUSH2 0x8C6 DUP3 DUP6 PUSH2 0x86A JUMP JUMPDEST PUSH1 0x14 DUP3 ADD SWAP2 POP PUSH2 0x8D6 DUP3 DUP5 PUSH2 0x88B JUMP JUMPDEST SWAP2 POP DUP2 SWAP1 POP SWAP4 SWAP3 POP POP POP JUMP JUMPDEST PUSH0 DUP2 SWAP1 POP DUP2 PUSH0 MSTORE PUSH1 0x20 PUSH0 KECCAK256 SWAP1 POP SWAP2 SWAP1 POP JUMP JUMPDEST PUSH0 PUSH1 0x20 PUSH1 0x1F DUP4 ADD DIV SWAP1 POP SWAP2 SWAP1 POP JUMP JUMPDEST PUSH0 DUP3 DUP3 SHL SWAP1 POP SWAP3 SWAP2 POP POP JUMP JUMPDEST PUSH0 PUSH1 0x8 DUP4 MUL PUSH2 0x93E PUSH32 0xFFFFFFFFFFFFFFFFFFFFFFFFFFFFFFFFFFFFFFFFFFFFFFFFFFFFFFFFFFFFFFFF DUP3 PUSH2 0x903 JUMP JUMPDEST PUSH2 0x948 DUP7 DUP4 PUSH2 0x903 JUMP JUMPDEST SWAP6 POP DUP1 NOT DUP5 AND SWAP4 POP DUP1 DUP7 AND DUP5 OR SWAP3 POP POP POP SWAP4 SWAP3 POP POP POP JUMP JUMPDEST PUSH0 DUP2 SWAP1 POP SWAP2 SWAP1 POP JUMP JUMPDEST PUSH0 PUSH2 0x983 PUSH2 0x97E PUSH2 0x979 DUP5 PUSH2 0x4FF JUMP JUMPDEST PUSH2 0x960 JUMP JUMPDEST PUSH2 0x4FF JUMP JUMPDEST SWAP1 POP SWAP2 SWAP1 POP JUMP JUMPDEST PUSH0 DUP2 SWAP1 POP SWAP2 SWAP1 POP JUMP JUMPDEST PUSH2 0x99C DUP4 PUSH2 0x969 JUMP JUMPDEST PUSH2 0x9B0 PUSH2 0x9A8 DUP3 PUSH2 0x98A JUMP JUMPDEST DUP5 DUP5 SLOAD PUSH2 0x90F JUMP JUMPDEST DUP3 SSTORE POP POP POP POP JUMP JUMPDEST PUSH0 PUSH0 SWAP1 POP SWAP1 JUMP JUMPDEST PUSH2 0x9C7 PUSH2 0x9B8 JUMP JUMPDEST PUSH2 0x9D2 DUP2 DUP5 DUP5 PUSH2 0x993 JUMP JUMPDEST POP POP POP JUMP JUMPDEST JUMPDEST DUP2 DUP2 LT ISZERO PUSH2 0x9F5 JUMPI PUSH2 0x9EA PUSH0 DUP3 PUSH2 0x9BF JUMP JUMPDEST PUSH1 0x1 DUP2 ADD SWAP1 POP PUSH2 0x9D8 JUMP JUMPDEST POP POP JUMP JUMPDEST PUSH1 0x1F DUP3 GT ISZERO PUSH2 0xA3A JUMPI PUSH2 0xA0B DUP2 PUSH2 0x8E2 JUMP JUMPDEST PUSH2 0xA14 DUP5 PUSH2 0x8F4 JUMP JUMPDEST DUP2 ADD PUSH1 0x20 DUP6 LT ISZERO PUSH2 0xA23 JUMPI DUP2 SWAP1 POP JUMPDEST PUSH2 0xA37 PUSH2 0xA2F DUP6 PUSH2 0x8F4 JUMP JUMPDEST DUP4 ADD DUP3 PUSH2 0x9D7 JUMP JUMPDEST POP POP JUMPDEST POP POP POP JUMP JUMPDEST PUSH0 DUP3 DUP3 SHR SWAP1 POP SWAP3 SWAP2 POP POP JUMP JUMPDEST PUSH0 PUSH2 0xA5A PUSH0 NOT DUP5 PUSH1 0x8 MUL PUSH2 0xA3F JUMP JUMPDEST NOT DUP1 DUP4 AND SWAP2 POP POP SWAP3 SWAP2 POP POP JUMP JUMPDEST PUSH0 PUSH2 0xA72 DUP4 DUP4 PUSH2 0xA4B JUMP JUMPDEST SWAP2 POP DUP3 PUSH1 0x2 MUL DUP3 OR SWAP1 POP SWAP3 SWAP2 POP POP JUMP JUMPDEST PUSH2 0xA8B DUP3 PUSH2 0x48F JUMP JUMPDEST PUSH8 0xFFFFFFFFFFFFFFFF DUP2 GT ISZERO PUSH2 0xAA4 JUMPI PUSH2 0xAA3 PUSH2 0x59E JUMP JUMPDEST JUMPDEST PUSH2 0xAAE DUP3 SLOAD PUSH2 0x7A4 JUMP JUMPDEST PUSH2 0xAB9 DUP3 DUP3 DUP6 PUSH2 0x9F9 JUMP JUMPDEST PUSH0 PUSH1 0x20 SWAP1 POP PUSH1 0x1F DUP4 GT PUSH1 0x1 DUP2 EQ PUSH2 0xAEA JUMPI PUSH0 DUP5 ISZERO PUSH2 0xAD8 JUMPI DUP3 DUP8 ADD MLOAD SWAP1 POP JUMPDEST PUSH2 0xAE2 DUP6 DUP3 PUSH2 0xA67 JUMP JUMPDEST DUP7 SSTORE POP PUSH2 0xB49 JUMP JUMPDEST PUSH1 0x1F NOT DUP5 AND PUSH2 0xAF8 DUP7 PUSH2 0x8E2 JUMP JUMPDEST PUSH0 JUMPDEST DUP3 DUP2 LT ISZERO PUSH2 0xB1F JUMPI DUP5 DUP10 ADD MLOAD DUP3 SSTORE PUSH1 0x1 DUP3 ADD SWAP2 POP PUSH1 0x20 DUP6 ADD SWAP5 POP PUSH1 0x20 DUP2 ADD SWAP1 POP PUSH2 0xAFA JUMP JUMPDEST DUP7 DUP4 LT ISZERO PUSH2 0xB3C JUMPI DUP5 DUP10 ADD MLOAD PUSH2 0xB38 PUSH1 0x1F DUP10 AND DUP3 PUSH2 0xA4B JUMP JUMPDEST DUP4 SSTORE POP JUMPDEST PUSH1 0x1 PUSH1 0x2 DUP9 MUL ADD DUP9 SSTORE POP POP POP JUMPDEST POP POP POP POP POP POP JUMP JUMPDEST PUSH0 PUSH1 0x20 DUP3 ADD SWAP1 POP DUP2 DUP2 SUB PUSH0 DUP4 ADD MSTORE PUSH2 0xB69 DUP2 DUP5 PUSH2 0x4C7 JUMP JUMPDEST SWAP1 POP SWAP3 SWAP2 POP POP JUMP INVALID LOG2 PUSH5 0x6970667358 0x22 SLT KECCAK256 0x4C DUP10 CREATE2 0xDA SWAP14 CALLF 0x97A0 0xC2 CREATE2 0xA7 0xB7 DUP5 0x4D ORIGIN 0x2A PUSH24 0xCA5ED8153F0D2F3816215C82018A1664736F6C634300081E STOP CALLER "
				},
				"gasEstimates": {
					"creation": {
						"codeDepositCost": "596600",
						"executionCost": "24894",
						"totalCost": "621494"
					},
					"external": {
						"issueCredential(address,string)": "infinite",
						"owner()": "2507",
						"registry(bytes32)": "infinite",
						"verifyDocument(bytes32)": "2854"
					}
				},
				"methodIdentifiers": {
					"issueCredential(address,string)": "90c7c49c",
					"owner()": "8da5cb5b",
					"registry(bytes32)": "7ef50298",
					"verifyDocument(bytes32)": "fe35089f"
				}
			},
			"storageLayout": {
				"storage": [
					{
						"astId": 3,
						"contract": "EdutraceLedger.sol:EdutraceLedger",
						"label": "owner",
						"offset": 0,
						"slot": "0",
						"type": "t_address"
					},
					{
						"astId": 7,
						"contract": "EdutraceLedger.sol:EdutraceLedger",
						"label": "verifiedDocuments",
						"offset": 0,
						"slot": "1",
						"type": "t_mapping(t_bytes32,t_bool)"
					},
					{
						"astId": 19,
						"contract": "EdutraceLedger.sol:EdutraceLedger",
						"label": "registry",
						"offset": 0,
						"slot": "2",
						"type": "t_mapping(t_bytes32,t_struct(DocumentRecord)14_storage)"
					}
				],
				"types": {
					"t_address": {
						"encoding": "inplace",
						"label": "address",
						"numberOfBytes": "20"
					},
					"t_bool": {
						"encoding": "inplace",
						"label": "bool",
						"numberOfBytes": "1"
					},
					"t_bytes32": {
						"encoding": "inplace",
						"label": "bytes32",
						"numberOfBytes": "32"
					},
					"t_mapping(t_bytes32,t_bool)": {
						"encoding": "mapping",
						"key": "t_bytes32",
						"label": "mapping(bytes32 => bool)",
						"numberOfBytes": "32",
						"value": "t_bool"
					},
					"t_mapping(t_bytes32,t_struct(DocumentRecord)14_storage)": {
						"encoding": "mapping",
						"key": "t_bytes32",
						"label": "mapping(bytes32 => struct EdutraceLedger.DocumentRecord)",
						"numberOfBytes": "32",
						"value": "t_struct(DocumentRecord)14_storage"
					},
					"t_string_storage": {
						"encoding": "bytes",
						"label": "string",
						"numberOfBytes": "32"
					},
					"t_struct(DocumentRecord)14_storage": {
						"encoding": "inplace",
						"label": "struct EdutraceLedger.DocumentRecord",
						"members": [
							{
								"astId": 9,
								"contract": "EdutraceLedger.sol:EdutraceLedger",
								"label": "issuer",
								"offset": 0,
								"slot": "0",
								"type": "t_address"
							},
							{
								"astId": 11,
								"contract": "EdutraceLedger.sol:EdutraceLedger",
								"label": "ipfsCid",
								"offset": 0,
								"slot": "1",
								"type": "t_string_storage"
							},
							{
								"astId": 13,
								"contract": "EdutraceLedger.sol:EdutraceLedger",
								"label": "timestamp",
								"offset": 0,
								"slot": "2",
								"type": "t_uint256"
							}
						],
						"numberOfBytes": "96"
					},
					"t_uint256": {
						"encoding": "inplace",
						"label": "uint256",
						"numberOfBytes": "32"
					}
				}
			},
			"userdoc": {
				"kind": "user",
				"methods": {
					"issueCredential(address,string)": {
						"notice": "Matches your Edge Function: contract.issueCredential(recipient, cid) It generates the hash internally using the same logic as your frontend."
					},
					"verifyDocument(bytes32)": {
						"notice": "Matches your StudentDashboard: verifyDocument(hash)"
					}
				},
				"version": 1
			}
		}
	}
}